:020000040800F2
:10000000F8070020B9270008E9250008EB250008BB
:10001000ED250008EF250008F1250008000000008C
:10002000000000000000000000000000F3250008B0
:10003000F525000800000000F7250008F925000854
:10004000F9270008FD2700080128000805280008F6
:1000500009280008052600080D28000811280008B6
:1000600015280008192800081D2800082128000864
:1000700025280008292800082D2800080726000840
:100080003128000835280008392800083D280008D4
:100090004128000845280008492800084D28000884
:1000A0005128000855280008592800085D28000834
:1000B0006128000865280008692800086D280008E4
:1000C0007128000875280008792800087D28000894
:1000D00081280008112600088528000889280008C2
:1000E0008D28000891280008952800089928000804
:1000F0009D280008A1280008A5280008A9280008B4
:10010000AD280008B1280008B5280008B928000863
:1001100023260008BD280008312600083B260008D9
:10012000C1280008C528000845260008C92800087D
:1001300010B401000022002901D101203DE008682F
:10014000DFF8083398420CD20B68DFF80403C318B9
:100150001420B3FBF0F080000864DFF8F802C863F5
:100160000BE00B68DFF8F002C3181420B3FBF0F0CB
:1001700080000864DFF8E402C863022081F82100EF
:10018000086803686FF30D134C6888680443C868F7
:100190000443086904434869044388690443C869FF
:1001A000044323430868036000208863012081F82A
:1001B0002100002081F82000002010BC70472DE9AC
:1001C000F04104000D0016001F005FF0000894F8D5
:1001D0002000012801D102203BE0012084F820000A
:1001E00094F8210001282DD1022084F8210000205C
:1001F000A0632068006840084000216808603B0058
:1002000032002900200000F00BFBE06A002806D035
:100210002068006850F00E00216808600BE020683C
:10022000006830F00400216808602068006850F021
:100230000A00216808602068006850F00100216809
:10024000086004E0002084F8200002208046404638
:10025000C0B2BDE8F081020000201168096831F0E9
:100260000E0113681960116809684908490013688C
:1002700019600123116C8B40D16B4B60012182F816
:100280002110002182F82010C0B2704738B5040058
:10029000002594F82100022804D00420A063012046
:1002A0000500CFE02068006830F00E00216808608B
:1002B0002068006840084000216808602068DFF876
:1002C000A011884259D32068DFF89811884201D1E3
:1002D00001204EE02068DFF89011884201D1102003
:1002E00047E02068DFF88411884202D14FF4807023
:1002F0003FE02068DFF87811884202D14FF4805047
:1003000037E02068DFF86C11884202D15FF480305A
:100310002FE02068DFF86011884202D15FF480107E
:1003200027E02068DFF85411884202D15FF0807026
:100330001FE02068DFF81411884201D1012018E085
:100340002068DFF83C11884201D1102011E02068BC
:10035000DFF83011884202D14FF4807009E0206844
:10036000DFF82411884202D14FF4805001E05FF49D
:100370008030DFF81811086058E02068DFF8E410DA
:10038000884201D101204EE02068DFF8DC1088426D
:1003900001D1102047E02068DFF8D010884202D158
:1003A0004FF480703FE02068DFF8C410884202D12B
:1003B0004FF4805037E02068DFF8B810884202D14F
:1003C0005FF480302FE02068DFF8AC10884202D163
:1003D0005FF4801027E02068DFF8A010884202D187
:1003E0005FF080701FE02068DFF86010884201D164
:1003F000012018E02068DFF88810884201D1102021
:1004000011E02068DFF87C10884202D14FF4807040
:1004100009E02068DFF87010884202D14FF4805064
:1004200001E05FF48030DFF8C0130860012084F839
:100430002100002084F82000606B002802D02000FA
:10044000616B88472800C0B232BD0000080402403A
:10045000F8FFFDBF00000240F8FBFDBF00040240B2
:1004600081000240080002401C00024030000240AF
:1004700044000240580002406C00024080000240EC
:100480001C040240300402404404024004040240C0
:1004900070B50400E06B0568206806680421206CD4
:1004A00081400D4200F0C080700740F1BD8020689F
:1004B0000068800605D42068006830F004002168D8
:1004C00008602068DFF82413884258D32068DFF8DA
:1004D0002013884201D104204EE02068DFF8141375
:1004E000884201D1402047E02068DFF80C138842A1
:1004F00002D14FF480603FE02068DFF800138842AB
:1005000002D14FF4804037E02068DFF8F4128842CF
:1005100002D15FF480202FE02068DFF8E8128842E3
:1005200002D15FF4800027E02068DFF8DC12884207
:1005300002D15FF080601FE02068DFF8D0128842AF
:1005400001D1042018E02068DFF8C412884201D1EC
:10055000402011E02068DFF8BC12884202D14FF43D
:10056000806009E02068DFF8B012884202D14FF4C1
:10057000804001E05FF48020A84908604CE02068DA
:100580009B49884201D1042044E02068994988426F
:1005900001D140203EE020689749884202D14FF4C3
:1005A000806037E020689549884202D14FF480404E
:1005B00030E020689249884202D15FF4802029E02F
:1005C00020689049884202D15FF4800022E02068D0
:1005D0008D49884202D15FF080601BE020688B4922
:1005E000884201D1042015E020688949884201D160
:1005F00040200FE020688749884202D14FF4806094
:1006000008E020688449884202D14FF4804001E02C
:100610005FF4802074490860E06A002800F0E380FD
:100620002000E16A8847DEE00221206C81400D4213
:1006300000F0B980B00740F1B680206800688006FD
:1006400008D42068006830F00A00216808600120A2
:1006500084F821002068654988424DD320686449A8
:10066000884201D1022044E020686249884201D1D9
:1006700020203EE020686049884202D14FF400709B
:1006800037E020685D49884202D14FF4005030E0E5
:1006900020685B49884202D15FF4003029E020687D
:1006A0005849884202D15FF4001022E02068564980
:1006B000884202D15FF000701BE0206853498842F5
:1006C00001D1022015E020685149884201D1202043
:1006D0000FE020684F49884202D14FF4007008E0D3
:1006E00020684D49884202D14FF4005001E05FF488
:1006F00000304A4908604CE020683D49884201D1F9
:10070000022044E020683B49884201D120203EE09D
:1007100020683949884202D14FF4007037E02068E0
:100720003649884202D14FF4005030E02068344905
:10073000884202D15FF4003029E0206831498842C4
:1007400002D15FF4001022E020682F49884202D1D4
:100750005FF000701BE020682C49884201D1022024
:1007600015E020682A49884201D120200FE0206846
:100770002849884202D14FF4007008E020682649D9
:10078000884202D14FF4005001E05FF40030164976
:100790000860002084F82000A06A002823D02000F0
:1007A000A16A88471FE00821206C81400D421AD0C1
:1007B000300718D52068006830F00E002168086006
:1007C0000121206C8140E06B41600120A063012089
:1007D00084F82100002084F82000206B002802D03B
:1007E0002000216B884770BD040002408100024058
:1007F000080002401C000240300002404400024059
:10080000580002406C000240800002400804024090
:100810001C0402403004024044040240040402402C
:1008200030B40125046CA540C46B65600468636046
:100830004468102C04D10468A2600468E16003E0FD
:100840000468A1600468E26030BC704710B5040021
:10085000002C01D1012033E0A0690028FFD194F8D9
:100860003900002805D1002084F83800200000F06D
:10087000BCFB242084F839002068C06830F40050A4
:100880002168C860200000F099FA2068006930F4FF
:100890009040216808612068406930F02A00216892
:1008A00048612068C06850F400502168C86000208A
:1008B000E063202084F83900202084F83A000020EA
:1008C00010BD73B50400150094F83A00202851D1EA
:1008D0000198002803D0280080B2002801D101200F
:1008E00049E094F83800012801D1022043E00120BA
:1008F00084F838000198A062A5850020E0632220DA
:1009000084F83A000FF27D20616B88620FF2B92003
:10091000616BC8620FF2C120616B08630020616BDC
:10092000486301AE2B009BB232682068011D606BEA
:10093000FFF745FC002000902068006800902068C8
:10094000406800900098002084F838002068C06853
:1009500050F480702168C8602068406950F0010040
:10096000216848612068406950F040002168486172
:10097000002000E0022076BD70B50600002031683E
:100980004C69E40914F0010496F83910212910D1BA
:10099000002C0ED03068406930F08000316848612A
:1009A000306B002802D0306BFFF755FC300000F0B0
:1009B0003FF930684569AD0915F0010596F83A0030
:1009C000222810D1002D0ED03068406930F0400050
:1009D00031684861706B002802D0706BFFF73BFCF8
:1009E000300000F02FF9002070BD10B50400206821
:1009F000C06830F490702168C86020684069400881
:100A00004000216848612068406940060ED5206892
:100A1000406930F0400021684861606B002805D0D3
:100A20000020616B4863606BFFF715FC0020E085D8
:100A3000202084F83A00002010BD2DE9F84306007C
:100A4000306807683068D0F80C803068D0F81490AF
:100A50000020002517F00F04002C08D1B80606D599
:100A60005FEA886003D5300000F051F988E0002C7F
:100A700074D05FEAC97002D418F4907F6ED017F07A
:100A80000100C0B2002806D05FEAC85003D5F06B61
:100A900050F00100F063780708D519F00100C0B2EA
:100AA000002803D0F06B50F00200F063B80708D5BF
:100AB00019F00100C0B2002803D0F06B50F0040020
:100AC000F063380708D519F00100C0B2002803D040
:100AD000F06B50F00800F063F06B00283DD0B806D2
:100AE00005D55FEA886002D5300000F010F9306863
:100AF0004069800910F001000500F06B000701D487
:100B0000002D25D0300000F09DF830684069400687
:100B10001AD53068406930F0400031684861706B28
:100B200000280DD00FF24110716B4863706BFFF716
:100B3000ADFB002811D0706B716B496B88470CE0DE
:100B4000300000F01DFB08E0300000F019FB04E06D
:100B5000300000F015FB0020F06311E0380606D5E8
:100B60005FEA086003D5300000F08AF808E07806F4
:100B700006D55FEA486003D5300000F0B8F8FFE71B
:100B8000BDE8F18338B50400656A20680068800616
:100B900016D40020E8852868C06830F48070296881
:100BA000C860286840694008400029684861286892
:100BB000406930F0400029684861202085F83A00FB
:100BC000280000F0DEFA31BD38B50400656A28005F
:100BD00000F0D8FA31BD0000F8B506000020776AB1
:100BE00039684C69E40914F0010497F83910212997
:100BF00006D1002C04D00020F884380000F018F84A
:100C000038684569AD0915F0010597F83A002228C2
:100C100006D1002D04D00020F885380000F012F82D
:100C2000F86B50F01000F863380000F0A9FAF1BD3D
:100C30000168C96831F0C0010268D160202180F8E4
:100C4000391070470168C96831F490710268D16049
:100C5000016849694908490002685161202180F80A
:100C60003A1070470000000038B50400656A0020A3
:100C7000E8850020E884280000F082FA31BD0000F9
:100C8000010091F8390021282FD18868B0F5805FE4
:100C900011D1086A02001088C005C00D0B685860A9
:100CA0000869002803D1086A801C086209E0086A04
:100CB000401C086205E0086A431C0B6200780B6860
:100CC0005860C88C401EC88480B200280BD10868C8
:100CD000C06830F080000B68D8600868C06850F0C9
:100CE00040000B68D860002000E00220704710B57B
:100CF00004002068C06830F040002168C8602020EF
:100D000084F83900200000F03EFA002010BD38B50C
:100D1000040094F83A0022284ED1A068B0F5805F14
:100D200016D1A06A05002069002808D12068406813
:100D3000C005C00D2880A06A801CA0621AE020684F
:100D4000406800F0FF002880A06A401CA06211E00B
:100D50002069002806D1A06A411CA1622168496867
:100D6000017007E0A06A411CA1622168496811F086
:100D70007F010170E08D401EE08580B2002819D10E
:100D80002068C06830F020002168C8602068C06812
:100D900030F480702168C8602068406940084000D5
:100DA00021684861202084F83A00200000F0E9F929
:100DB000002002E0002000E0022032BD2DE9F843CF
:100DC000050000242868016931F44051E8680143B6
:100DD00028680161A96828690143686901430C43D7
:100DE0002868C1685648014021432868C1602868C6
:100DF000416931F44071A86901432868416128685C
:100E0000504988424DD100F0ADFC060000F0AAFC2C
:100E1000070000F0A7FC804600F0A4FC814600F02B
:100E2000A1FC6421192256436B689B00B6FBF3F3C7
:100E30006426B3FBF6F357436E68B600B7FBF6F6CD
:100E400002FB08F86F68BF00B8FBF7F75FF0640CAF
:100E5000B7FBFCF701FB1766360132366427B6FB99
:100E6000F7F616F0F00616EB031602FB09F96B68AD
:100E70009B00B9FBF3F302FB00F268688000B2FB51
:100E8000F0F06422B0FBF2F001FB103108013230C7
:100E90006421B0FBF1F010F00F008619286886601D
:100EA0004CE000F054FC060000F051FC070000F09C
:100EB0004EFC804600F04BFC814600F048FC64216B
:100EC000192256436B689B00B6FBF3F36426B3FB11
:100ED000F6F357436E68B600B7FBF6F602FB08F868
:100EE0006F68BF00B8FBF7F75FF0640CB7FBFCF767
:100EF00001FB1766360132366427B6FBF7F616F0AB
:100F0000F00616EB031602FB09F96B689B00B9FBB0
:100F1000F3F302FB00F268688000B2FBF0F0642299
:100F2000B0FBF2F001FB1031080132306421B0FB5C
:100F3000F1F010F00F00861928688660BDE8F18393
:100F4000F3E9FFFF0038014080B58048016851F0A7
:100F500001010160006810F00100009000987C48D9
:100F6000016851F080510160006810F080500090DD
:100F70000098052000F0A3FC00220021052000F0CD
:100F8000A4FC052000F0B6FC01BD1CB504002068DF
:100F90007049884212D16E48016851F01001016019
:100FA000006810F010000090009802220121362005
:100FB00000F08BFC362000F09DFC15E020686649AF
:100FC000884211D16248016851F020010160006837
:100FD00010F020000090009801220121372000F03D
:100FE00074FC372000F086FC13BD30B585B00400DA
:100FF0006846102100F0A0FC2068584988424DD175
:101000005348016851F400210160006810F4002089
:10101000049004984D48016851F010010160006887
:1010200010F01000049004984FF4806000900220AB
:101030000190032003904A4D6946280000F09CFC73
:101040004FF400600090002001900020029069465B
:10105000280000F091FC434D434828600020686060
:101060000020A8608020E8600020286100206861DE
:101070000020A8610020E8612800FFF759F8002847
:1010800001D000F071FF65636C62032203213420FC
:1010900000F01BFC342000F02DFC54E020683349A4
:1010A000884250D12948016851F4804101600168AB
:1010B00011F4804104910499016851F00801016024
:1010C000006810F00800049004984020009002206E
:1010D000019003200390264D6946280000F04CFC47
:1010E0008020009000200190002002906946280096
:1010F00000F042FC1F49086850F0E06050F0040026
:1011000008601D4D1D482860002068600020A86010
:101110008020E86000202861002068610020A8612C
:101120000020E8612800FFF703F8002801D000F054
:101130001BFF65636C6202220321252000F0C5FBC2
:10114000252000F0D7FB05B030BD0000181002408C
:101150001C1002400010004000140040004C0040F1
:1011600000100140640200203004024000380140B9
:10117000000C014004000140A80200205800024079
:1011800070477047704770472DE9F8430400002509
:101190002078C0076BD5DFF80C06016811F00C0150
:1011A000042907D0016811F00C0108290CD100684E
:1011B000C00309D5DFF8E8050068800357D56068EB
:1011C000002854D10120BDE16068B0F5803F06D110
:1011D000DFF8CC05016851F48031016026E06068D9
:1011E00000280AD1DFF8B805016831F480310160C8
:1011F000016831F48021016018E06068B0F5A02F2B
:101200000AD1DFF89C05016851F480210160016872
:1012100051F48031016009E0DFF88405016831F4A0
:1012200080310160016831F480210160606800282C
:101230000ED000F09BFE0500DFF864050068800317
:1012400015D400F093FE401B6528F5D3032079E107
:1012500000F08CFE0500DFF848050068800306D525
:1012600000F084FE401B6528F5D303206AE1207856
:10127000800750D5DFF82C05016811F00C0F07D05E
:10128000016811F00C01082914D10068C00311D4C1
:10129000DFF80C050168890704D52169012901D00F
:1012A00001204FE1016831F0F801626951EAC201A1
:1012B000016030E0206900281AD00120DFF8F41422
:1012C000086000F053FE0500DFF8D40401688907C8
:1012D00006D400F04BFE401B0328F5D3032031E178
:1012E000016831F0F801626951EAC201016012E05F
:1012F0000020DFF8C014086000F038FE0500DFF8B9
:10130000A0040068800706D500F030FE401B0328CB
:10131000F5D3032016E1207800072CD5A06900281A
:1013200016D00120DFF89014086000F01FFE0500C1
:10133000DFF87C040068800706D400F017FE401B2D
:101340000328F5D30320FDE0012000F016FA12E097
:101350000020DFF86414086000F008FE0500DFF8E4
:1013600050040068800706D500F000FE401B0328EB
:10137000F5D30320E6E02078400740F1888000267E
:10138000DFF838743868C0000AD4386850F08050EC
:101390003860386810F080500090009801200600F6
:1013A000DFF81C84D8F80000C00513D4D8F800007A
:1013B00050F48070C8F8000000F0D8FD0500D8F89F
:1013C0000000C00506D400F0D1FD401B6528F6D30F
:1013D0000320B7E0E068012806D1DFF8E8030168E0
:1013E00051F00101016025E0E06800280AD1DFF832
:1013F000D4030168490849000160016831F0040123
:10140000016017E0E06805280AD1DFF8B803016839
:1014100051F004010160016851F00101016009E02F
:10142000DFF8A0030168490849000160016831F054
:1014300004010160E068002810D000F097FD05006D
:10144000DFF880030068800719D400F08FFD401B8F
:1014500041F289318842F3D3032073E000F086FD26
:101460000500DFF860030068800708D500F07EFD06
:10147000401B41F289318842F3D3032062E03000FF
:10148000C0B2012803D1386830F080503860E0697C
:10149000002856D0DFF80C73386810F00C000828CC
:1014A0004DD0E069022837D1DFF81C930020C9F83D
:1014B000000000F05BFD0600DFF8E482D8F80000D1
:1014C000800106D500F052FD801B0328F4D30320D1
:1014D00038E0206AB0F5803F05D1396831F4003139
:1014E000A06801433960396831F47411206A0143FE
:1014F000606A014339600120C9F8000000F036FD40
:101500000500D8F8000080011BD400F02FFD401B1F
:101510000328F6D3032015E00020DFF8AC120860A2
:1015200000F024FD0500DFF878020068800108D58E
:1015300000F01CFD401B0328F5D3032002E001202E
:1015400000E00020BDE8F2832DE9F04104000D0029
:101550000026DFF87872386810F00700A8420BD236
:101560003868C008C00028433860386810F00700A9
:10157000A84201D00120ADE02078800719D520785D
:10158000400705D5DFF81C02016851F4E0610160F5
:101590002078000705D5DFF80C02016851F460518E
:1015A0000160DFF800120A6832F0F002A06802431E
:1015B0000A602078C00758D56068012806D1DFF896
:1015C000E0010068800311D4012083E060680228F4
:1015D00006D1DFF8CC010068800107D4012079E052
:1015E0006F480068800701D4012073E0DFF8B48100
:1015F000D8F800108908890060680143C8F8001015
:1016000000F0B4FC0600606801280ED1D8F8000094
:1016100010F00C00042828D000F0A8FC801B41F238
:1016200089318842F2D3032054E0606802280ED149
:10163000D8F8000010F00C00082816D000F096FC36
:10164000801B41F289318842F2D3032042E0D8F86E
:10165000000010F00C0F08D000F088FC801B41F255
:1016600089318842F3D3032034E0386810F0070052
:1016700085420BD23868C008C000284338603868FB
:1016800010F00700A84201D0012023E02078400795
:1016900006D544490A6832F4E062E06802430A6011
:1016A0002078000707D53F48016831F4605122696E
:1016B00051EAC201016000F00FF84549394A126849
:1016C000C2F30312895CC84038490860002000F06A
:1016D00053FC0020BDE8F081F0B585B001A83D497C
:1016E000102200F06FFC3C480088ADF8000000209C
:1016F00000210022002300252A4E346814F00C0734
:10170000042F02D0082F02D01BE027481AE001A8BE
:10171000C4F38347C05D0300E0030CD56846366818
:10172000C6F34046805D01001F4800FB03F0B0FB9C
:10173000F1F0020003E0294800FB03F00200100072
:1017400000E0194805B0F0BD18480068704780B542
:10175000FFF7FAFF2249134A1268C2F30222895C9A
:10176000C84002BD80B5FFF7EFFF1D490D4A126862
:10177000C2F3C222895CC84002BD81B00B4909682E
:10178000C9084FF47A72B1FBF2F101FB00F100914C
:1017900000BF00994A1E00920029F9D101B070479C
:1017A000001002400410024000127A0004000020E1
:1017B0002410024000004242800442421C100240B9
:1017C00000700040201002406000424200200240B1
:1017D000A8270008982700086A1F000800093D0094
:1017E000F027000810B410F00703494C22684FF6A8
:1017F000FF010A40474951EA03210A43226010BC15
:10180000704743480068C0F302207047012210F07F
:101810001F018A40404903005BB25B0941F8232065
:10182000704710B4020052B2002A09D50A013B4B9E
:10183000040064B214F00F04234403F8042C04E001
:101840000A01374B040064B21A5510BC704770B4DB
:10185000030013F00704D4F10700052801D3042086
:1018600001E0D4F10700251D072D01D2002500E07D
:10187000E51E012616FA00F0401E0140A94016FAA6
:1018800005F56D1E2A401143080070BC704710B565
:101890000400601EB0F1807F01D301200EE0601EC5
:1018A000204908600F215FF0FF30FFF7BAFF0020EA
:1018B0001D49086007201D490860002010BD10B5B3
:1018C00004002000FFF78EFF10BD2DE9F041040059
:1018D0000D0016000027FFF794FF80463200290014
:1018E0004046FFF7B4FF0100200040B2FFF799FF28
:1018F000BDE8F08110B50400200040B2FFF786FF7C
:1019000010BD10B504002000FFF7C1FF10BD00009E
:101910000CED00E00000FA0500E100E018ED00E049
:1019200000E400E014E000E018E000E010E000E077
:1019300080B500F095F901BD002200F087BB30B4FE
:10194000002513E050F8042BD30744BFA9F101038D
:101950009A18091F042942F8045BFAD213468C072F
:1019600044BF15809B1CC90748BF1D7050F8041B5D
:101970000029E7D130BC70472DE9F84702000B0081
:1019800000250026002100275FF000085FF0000E10
:10199000BEF1100F80F00D81012010FA0EF005004D
:1019A000186828400600AE4240F0008158680028C0
:1019B00031D0012820D0022825D003283CD011287E
:1019C0001DD0122823D0DFF814C2604523D0DFF8E1
:1019D00010C260451FD0DFF80CC260451BD0DFF895
:1019E00008C2604517D0DFF804C2604513D0DFF8A5
:1019F00000C260450FD022E0D86807001FE0D86819
:101A0000001D07001BE0D8680830070017E0D86801
:101A10000C30070013E09868002802D1042007006A
:101A200009E09868012803D108200700156102E049
:101A300008200700556102E000200700FFE7B6F527
:101A4000807F01D2140000E0141DB6F5807F02D221
:101A50005FEA8E0803E0BEF108085FEA88085FF0DD
:101A60000F09D4F800C019FA08F03CEA000C17FA84
:101A700008F050EA0C0CC4F800C05868C00040F1EF
:101A800095805C48D0F800C05CF0010CC0F800C044
:101A9000006810F0010000900098DFF85CC170460B
:101AA00080085CF820A01EF00300C0B2800019FA84
:101AB00000F93AEA090A5148824202D15FF000096E
:101AC0001FE04F48824202D15FF0010919E04D4802
:101AD000824202D15FF0020913E04B48824202D1F8
:101AE0005FF003090DE04948824202D15FF004092A
:101AF00007E04748824202D15FF0050901E05FF04C
:101B000006091EF00300C0B2800019FA00F9514620
:101B100059EA0101704680084CF820105868C0034B
:101B200007D53C48D0F800C056EA0C0CC0F800C0FD
:101B300006E03848D0F800C03CEA060CC0F800C007
:101B40005868800307D53448D0F800C056EA0C0C1A
:101B5000C0F800C006E03048D0F800C03CEA060CEF
:101B6000C0F800C05868C00207D52C48D0F800C0A3
:101B700056EA0C0CC0F800C006E02848D0F800C0B7
:101B80003CEA060CC0F800C05868800207D524481B
:101B9000D0F800C056EA0C0CC0F800C006E020489F
:101BA000D0F800C03CEA060CC0F800C01EF1010EDF
:101BB000EEE6BDE8F1871300DBB2002B03D00B008B
:101BC0009BB2036103E00B009BB21B0403617047EF
:101BD000C3680A0092B25340C360704700001110FE
:101BE000000012100000211000002210000031102F
:101BF00000003210181002400800014000080140A7
:101C0000000C014000100140001401400018014088
:101C1000001C01400004014004040140080401408C
:101C20000C04014080B500F02BFA00F04DF800F0F4
:101C300029F900F002F900F07CF800F0A1F800F0BA
:101C4000C4F800F0DEF801222021B848FFF7B3FF06
:101C500000F0C4FA0120B649087000F08BFAFCE7E6
:101C600010B500F083F90400B148017801290BD1C7
:101C7000C820B4FBF0F100FB1140002823D1022161
:101C8000AA48FFF7A5FF1EE0017802290CD14FF406
:101C90007A70B4FBF0F100FB1140002813D102214F
:101CA000A248FFF795FF0EE0007803280BD14FF410
:101CB0007A70B4FBF0F100FB1140002803D102213F
:101CC0009A48FFF785FF10BD00B58FB005A8282101
:101CD000FFF732FE68461421FFF72EFE0120059023
:101CE0005FF48030069000210791012109910221C3
:101CF0000C910D905FF4E0100E9005A8FFF744FAE8
:101D0000002801D000F030F90F200090022001904F
:101D1000002002904FF48060039000200490022184
:101D20006846FFF711FC002801D000F01DF90FB044
:101D300000BD1CB57F48D0E90023CDE900237E4CCF
:101D40007E48206040F2CF2060600020A06041F219
:101D50008730E0600020A061200000F0B9FA002880
:101D600001D000F001F900200090002001906946A8
:101D7000200000F0F1FB002801D000F0F5F813BDC1
:101D80001CB56F48D0E90023CDE900236D4C6E48A7
:101D90002060002060600020A0600020E060002043
:101DA000A061200000F094FA002801D000F0DCF8D7
:101DB00000200090002001906946200000F0CCFB3C
:101DC000002801D000F0D0F813BD80B55F4860490D
:101DD00001604FF4165141604FF480518160002141
:101DE000C1604FF4806101610C214161002181617A
:101DF0000021C161FEF72AFD002801D000F0B4F8EF
:101E000001BD80B55348544901604FF416614160EB
:101E10004FF4805181600021C1604FF48061016105
:101E20000C214161002181610021C161FEF70EFD9D
:101E3000002801D000F098F801BD80B5474801683E
:101E400051F001010160016811F001010091009958
:101E5000016851F002010160006810F0020000907A
:101E60000098012202210F20FFF72FFD0F20FFF71E
:101E700041FD022202213A20FFF727FD3A20FFF719
:101E800039FD01BD30B585B068461021FFF754FD1E
:101E90003348016851F008010160016811F0080140
:101EA00004910499016851F010010160016811F07A
:101EB000100104910499016851F02001016000684B
:101EC00010F0200004900498264C0022802120006D
:101ED000FFF771FE154D002220212800FFF76BFE51
:101EE0004FF470400090002001900020029069465D
:101EF0002800FFF741FD8020009001200190002084
:101F000002900220039069462000FFF735FD222051
:101F10000090012001900020029002200390694669
:101F20002800FFF729FD05B030BD0000000C01407E
:101F3000F4030020E0270008EC020020001000401D
:101F4000E82700082C030020001400406C03002048
:101F5000004C0040AC030020003801401410024047
:101F60001810024000140140704701020148006847
:101F7000704700BFEC03002010B504004FF47A70E6
:101F80000D490978B0FBF1F00C490968B1FBF0F09C
:101F9000FFF7B7FC002801D001200CE0102C09D27B
:101FA000002221005FF0FF30FFF78FFC044804603F
:101FB000002000E0012010BD0800002004000020E7
:101FC00000000020103A07D330B4B1E83810103ABE
:101FD000A0E83810F9D230BC530724BFB1E808108C
:101FE000A0E8081044BF51F8043B40F8043BD20776
:101FF00024BF31F8022B20F8022B44BF0B7803706A
:102000007047121F17D35B0009D151F8043B20F829
:10201000023B1B0C121F20F8023BF6D20BE051F8DA
:10202000043B00F8013B1B0A20F8023B1B0C121F6B
:1020300000F8013BF3D238BF121D521E24BF11F825
:10204000013B00F8013BF8D87047000000B500BF25
:10205000130096469446103928BFA0E80C50FAD8D1
:102060005FEA417C28BF0CC048BF40F8042BC90779
:1020700028BF20F8022B48BF00F8012B00BD00004C
:1020800080B50748016851F0100101600320FFF797
:1020900016FC0020FFF770FFFEF756FF002002BD80
:1020A000002002401CB50400784884421BD12068FF
:1020B0000068C00617D500200090206800680090D6
:1020C00020684068009000982000FEF755FC70489A
:1020D00070490968496801800188D1F596710180CD
:1020E00001206D49087013BD80B50F2000F062FA21
:1020F0006A4801680968C90616D50021009101687F
:10210000096800910168496800910099FEF734FC64
:10211000634864490968496801800188D1F596716E
:10212000018001206049087001BD10B55F4C20009E
:1021300000F0EAF80020216848625848FEF755FC94
:1021400001205949087010BD38B504005748844231
:102150000FD1574D2878401C28702878022190FB19
:10216000F1F201FB1200002803D1FFF7DEFF00208F
:10217000287031BD38B54C4C2078012814D14D4D14
:1021800047480188C9B2280000F042F800202070BA
:1021900042480168C96851F010010268D1604FF4EB
:1021A00096722900FEF78DFB3B4C2078012814D154
:1021B000414D37480188C9B2280000F04EF8002090
:1021C000207032480168C96851F010010268D1607E
:1021D0004FF496722900FEF774FB31BD80B52B4891
:1021E0000168C96851F010010268D1604FF496721D
:1021F0003149FEF766FB29480168C96851F01001B2
:102200000268D1604FF496722A49FEF75AFB01BD6D
:10221000F8B504000D00294E002220213000FFF700
:10222000CAFC002738002900C0B2C9B288420AD2CD
:10223000234800684006FBD53800C0B2205C214925
:1022400008607F1CEEE71E4800684006FBD50122AF
:1022500020213000FFF7AFFCF1BD10B400221300C5
:102260000C00DBB2E4B2A3420AD2174B1B685B0638
:10227000FBD51300DBB2C35C144C2360521CEEE7A9
:10228000114B1B685B06FBD510BC7047AC030020EC
:10229000F2030020A8020020F60300206C030020B7
:1022A000F003002064020020F5030020EC0200206F
:1022B000F70300200C00002038010020000C014032
:1022C0000038014004380140004C0040044C0040FC
:1022D00010B50400002C01D1012014E094F83D0059
:1022E000002805D1002084F83C002000FEF74DFEB8
:1022F000022084F83D00211D206800F0DBF8012059
:1023000084F83D00002010BD01000868C068400846
:1023100040000A68D0600868006A41F21112104259
:102320000BD10868006A40F24442104205D10868A7
:102330000068400840000A6810600020704710B52F
:1023400004002068006980071AD52068C0688007EB
:1023500016D57FF0020021680861012020772068EF
:10236000806910F0030F03D0200000F037F905E07A
:10237000200000F034F9200000F032F9002020772E
:102380002068006940071AD52068C068400716D544
:102390007FF00400216808610220207720688069AE
:1023A00010F4407F03D0200000F018F905E0200071
:1023B00000F015F9200000F013F9002020772068C4
:1023C000006900071AD52068C068000716D57FF09D
:1023D000080021680861042020772068C06910F097
:1023E000030F03D0200000F0F9F805E0200000F012
:1023F000F6F8200000F0F4F800202077206800694B
:10240000C0061AD52068C068C00616D57FF0100037
:1024100021680861082020772068C06910F4407F97
:1024200003D0200000F0DAF805E0200000F0D7F833
:10243000200000F0D5F80020207720680069C00750
:102440000AD52068C068C00706D57FF00100216862
:1024500008612000FFF778FE2068006900060AD5B1
:102460002068C068000606D57FF0800021680861FA
:10247000200000F0B6F82068006940060AD5206800
:10248000C068400606D57FF0400021680861200042
:1024900000F0A8F82068006980060AD52068C068A6
:1024A000800606D57FF0200021680861200000F03A
:1024B0009AF810BD10B400220468DFF88830984202
:1024C00012D0DFF8842090420ED0B0F1804F0BD0B4
:1024D000DFF87820904207D0DFF87420904203D0D4
:1024E000DFF87020904203D134F070044A6814433E
:1024F00098420FD0DFF8502090420BD0B0F1804FBF
:1025000008D0124A904205D0114A904202D0114A96
:10251000904203D134F44074CA68144334F0800408
:102520004A69144304608A68C2620A6882629842F7
:1025300002D0054A904201D10A6902630122426138
:1025400010BC7047002C01400034014000040040E2
:1025500000080040000C0040020092F83C000128F6
:1025600001D1022024E0012082F83C00022082F800
:102570003D001068406830F07000136858601068C3
:10258000436808680343106843601068806830F04F
:102590008000136898601068836848680343106877
:1025A0008360012082F83D00002082F83C0000207A
:1025B0007047000070B50400FFF7D8FC0500260046
:1025C00016F1010F02D0044800788619FFF7CEFCFF
:1025D000401BB042FAD370BD08000020704770471E
:1025E00070477047704770477047FEE7FEE7FEE7A9
:1025F000FEE770477047704780B500F035F8FFF789
:1026000097F901BD704780B51148FDF741FF01BD45
:1026100010B5104C2000FEF710FA2000FFF742FD25
:1026200010BD80B50C48FEF708FAFFF75DFD01BD4F
:1026300080B50A48FFF783FE01BD80B50848FFF763
:102640007EFE01BD80B50748FDF722FF01BD0000F9
:10265000A8020020AC0300206C030020EC02002044
:102660002C0300206402002003490A680348007814
:1026700082180A60704700BFEC03002008000020A9
:102680000F49086850F0010008600E4A13680E48B0
:10269000034013600B680D4803400B60086830F47A
:1026A00080200860106830F4FE0010605FF41F00A6
:1026B000074908605FF00060064908607047000045
:1026C00000100240041002400000FFF8FFFFF6FE79
:1026D0000810024008ED00E030B450F8041B79B156
:1026E0000268436802440830DC0744BFA9F10104D2
:1026F000E31852F8045B43F8045B091FF9D1ECE7D7
:1027000030BC704710B5074979441831064C7C44F9
:10271000163404E00A68081D114488470146A142A6
:10272000F8D110BD080000002800000013F2FFFFE0
:10273000EC0300000C000020000000009DFFFFFFE4
:102740000C000000900000000000002000000000CD
:1027500000F00DF8002801D0FFF7D4FFAFF30080A0
:102760000020AFF30080FFF75DFA00F002F80120CF
:10277000704700F001B800000746384600F002F844
:10278000FBE7000080B5AFF30080024A110018207B
:10279000ABBEFBE72600020002030405060708099A
:1027A0000A0B0C0D0E0F10100000000000000000BE
:1027B0000102030406070809014880470148004751
:1027C00081260008C9270008AFF30080AFF300801E
:1027D000FFF7BEFF1000000000A24A040100000045
:1027E00000000000000000000000000000000000E9
:1027F0000000000001020304FFF7FEBFFFF7FEBF69
:10280000FFF7FEBFFFF7FEBFFFF7FEBFFFF7FEBFFC
:10281000FFF7FEBFFFF7FEBFFFF7FEBFFFF7FEBFEC
:10282000FFF7FEBFFFF7FEBFFFF7FEBFFFF7FEBFDC
:10283000FFF7FEBFFFF7FEBFFFF7FEBFFFF7FEBFCC
:10284000FFF7FEBFFFF7FEBFFFF7FEBFFFF7FEBFBC
:10285000FFF7FEBFFFF7FEBFFFF7FEBFFFF7FEBFAC
:10286000FFF7FEBFFFF7FEBFFFF7FEBFFFF7FEBF9C
:10287000FFF7FEBFFFF7FEBFFFF7FEBFFFF7FEBF8C
:10288000FFF7FEBFFFF7FEBFFFF7FEBFFFF7FEBF7C
:10289000FFF7FEBFFFF7FEBFFFF7FEBFFFF7FEBF6C
:1028A000FFF7FEBFFFF7FEBFFFF7FEBFFFF7FEBF5C
:1028B000FFF7FEBFFFF7FEBFFFF7FEBFFFF7FEBF4C
:0C28C000FFF7FEBFFFF7FEBFFFF7FEBFF3
:04000005080027C9FF
:00000001FF
