:020000040800F2
:1000000060120020B13700087D3500087F350008F8
:1000100081350008833500088535000800000000A0
:10002000000000000000000000000000873500080C
:1000300089350008000000008B3500088D35000868
:10004000E1370008E5370008E9370008ED37000818
:10005000F137000899350008F5370008F93700082E
:10006000FD37000801380008053800080938000885
:100070000D38000811380008153800089B350008B5
:10008000193800081D3800082138000825380008F4
:10009000293800082D3800083138000835380008A4
:1000A000393800083D380008413800084538000854
:1000B000493800084D380008513800085538000804
:1000C000593800085D3800086138000865380008B4
:1000D00069380008A53500086D3800087138000837
:1000E00075380008793800087D3800088138000824
:1000F00085380008893800088D38000891380008D4
:1001000095380008993800089D380008A138000883
:10011000B7350008A5380008C9350008D3350008F0
:10012000A9380008AD380008DD350008B1380008EE
:1001300010B50400002C01D1012033E0A069002893
:10014000FFD194F83900002805D1002084F8380048
:10015000200000F000FC242084F839002068C068EA
:1001600030F400502168C860200000F0B3FA206825
:10017000006930F49040216808612068406930F0DF
:100180002A00216848612068C06850F40050216846
:10019000C8600020E063202084F83900202084F823
:1001A0003A00002010BD73B50400150094F83A0021
:1001B000202851D10198002803D0280080B20028BF
:1001C00001D1012049E094F83800012801D1022032
:1001D00043E0012084F838000198A062A585002042
:1001E000E063222084F83A000FF2B120616B88624C
:1001F0000FF2ED20616BC8620FF2F520616B0863AE
:100200000020616B486301AE2B009BB2326820680E
:10021000011D606B00F0A7FC0020009020680068C2
:1002200000902068406800900098002084F8380012
:100230002068C06850F480702168C86020684069F8
:1002400050F00100216848612068406950F040008A
:1002500021684861002000E0022076BD70B50600EC
:10026000002031684C69E40914F0010496F8391053
:10027000212910D1002C0ED03068406930F0800068
:1002800031684861306B002802D0306B00F0B7FC59
:10029000300000F059F930684569AD0915F00105E5
:1002A00096F83A00222810D1002D0ED0306840690F
:1002B00030F0400031684861706B002802D0706BEC
:1002C00000F09DFC300000F049F9002070BD10B531
:1002D00004002068C06830F4F0702168C8602068AD
:1002E0004069400840002168486120684069000674
:1002F0000ED52068406930F0800021684861206B8D
:10030000002805D00020216B4863206B00F077FCAB
:100310002068406940060ED52068406930F04000F2
:1003200021684861606B002805D00020616B48633C
:10033000606B00F064FC0020E0840020E085002079
:10034000E063202084F83A00202084F8390000205F
:1003500010BD2DE9F8430600306807683068D0F812
:100360000C803068D0F814900020002517F00F049E
:10037000002C08D1B80606D55FEA886003D53000A6
:1003800000F051F988E0002C74D05FEAC97002D403
:1003900018F4907F6ED017F00100C0B2002806D08C
:1003A0005FEAC85003D5F06B50F00100F0637807A6
:1003B00008D519F00100C0B2002803D0F06B50F04E
:1003C0000200F063B80708D519F00100C0B2002898
:1003D00003D0F06B50F00400F063380708D519F033
:1003E0000100C0B2002803D0F06B50F00800F063A9
:1003F000F06B00283DD0B80605D55FEA886002D5CD
:10040000300000F010F930684069800910F00100F8
:100410000500F06B000701D4002D25D0300000F05E
:100420009DF83068406940061AD53068406930F060
:10043000400031684861706B00280DD00FF2411008
:10044000716B4863706B00F0F5FB002811D0706B86
:10045000716B496B88470CE0300000F0CBFE08E080
:10046000300000F0C7FE04E0300000F0C3FE0020C2
:10047000F06311E0380606D55FEA086003D5300066
:1004800000F08AF808E0780606D55FEA486003D5F0
:10049000300000F0B8F8FFE7BDE8F18338B504009C
:1004A000656A20680068800616D40020E885286800
:1004B000C06830F480702968C860286840694008C6
:1004C0004000296848612868406930F04000296888
:1004D0004861202085F83A00280000F08CFE31BDEC
:1004E00038B50400656A280000F086FE31BD0000C2
:1004F000F8B506000020776A39684C69E40914F001
:10050000010497F83910212906D1002C04D00020CD
:10051000F884380000F018F838684569AD0915F01E
:10052000010597F83A00222806D1002D04D00020BA
:10053000F885380000F012F8F86B50F01000F863FE
:10054000380000F057FEF1BD0168C96831F0C00104
:100550000268D160202180F8391070470168C968AD
:1005600031F490710268D160016849694908490015
:1005700002685161202180F83A10704700000000A5
:1005800038B50400656A0020E8850020E88428006A
:1005900000F030FE31BD0000010091F83900212843
:1005A0002FD18868B0F5805F11D1086A02001088E9
:1005B000C005C00D0B6858600869002803D1086A9F
:1005C000801C086209E0086A401C086205E0086AAD
:1005D000431C0B6200780B685860C88C401EC884AE
:1005E00080B200280BD10868C06830F080000B682A
:1005F000D8600868C06850F040000B68D8600020E0
:1006000000E00220704710B504002068C06830F098
:1006100040002168C860202084F83900200000F0E4
:10062000ECFD002010BD38B5040094F83A002228F3
:100630004ED1A068B0F5805F16D1A06A0500206990
:10064000002808D120684068C005C00D2880A06A35
:10065000801CA0621AE02068406800F0FF0028803B
:10066000A06A401CA06211E02069002806D1A06A9F
:10067000411CA16221684968017007E0A06A411C21
:10068000A1622168496811F07F010170E08D401E70
:10069000E08580B2002819D12068C06830F02000C1
:1006A0002168C8602068C06830F480702168C86024
:1006B000206840694008400021684861202084F893
:1006C0003A00200000F097FD002002E0002000E04A
:1006D000022032BD2DE9F843050000242868016995
:1006E00031F44051E868014328680161A96828692C
:1006F0000143686901430C432868C16856480140BA
:1007000021432868C1602868416931F44071A869B3
:100710000143286841612868504988424DD101F061
:1007200049F8060001F046F8070001F043F880465A
:1007300001F040F8814601F03DF86421192256434A
:100740006B689B00B6FBF3F36426B3FBF6F35743E9
:100750006E68B600B7FBF6F602FB08F86F68BF00DC
:10076000B8FBF7F75FF0640CB7FBFCF701FB17660B
:10077000360132366427B6FBF7F616F0F00616EBB4
:10078000031602FB09F96B689B00B9FBF3F302FB4C
:1007900000F268688000B2FBF0F06422B0FBF2F077
:1007A00001FB1031080132306421B0FBF1F010F090
:1007B0000F008619286886604CE000F0F0FF060004
:1007C00000F0EDFF070000F0EAFF804600F0E7FFD1
:1007D000814600F0E4FF6421192256436B689B00B8
:1007E000B6FBF3F36426B3FBF6F357436E68B6002B
:1007F000B7FBF6F602FB08F86F68BF00B8FBF7F727
:100800005FF0640CB7FBFCF701FB1766360132366C
:100810006427B6FBF7F616F0F00616EB031602FB9C
:1008200009F96B689B00B9FBF3F302FB00F26868FF
:100830008000B2FBF0F06422B0FBF2F001FB10315B
:10084000080132306421B0FBF1F010F00F0086197E
:1008500028688660BDE8F183F3E9FFFF00380140B6
:1008600080B58B48016851F001010160006810F00B
:100870000100009000988748016851F080510160A4
:10088000006810F0805000900098052001F03FF8BB
:10089000002200217FF00B0001F03FF80022002130
:1008A0007FF00A0001F039F8002200217FF00900F2
:1008B00001F033F8002200217FF0040001F02DF850
:1008C000002200217FF0030001F027F80022002120
:1008D0007FF0010001F021F8002200215FF0FF30DD
:1008E00001F01BF800220021052001F016F8052078
:1008F00001F028F801BD1CB5040020686649884253
:1009000012D16448016851F010010160006810F0D4
:1009100010000090009802220121362000F0FDFF17
:10092000362001F00FF815E020685C49884211D1AB
:100930005848016851F020010160006810F0200063
:100940000090009801220121372000F0E6FF3720B7
:1009500000F0F8FF13BD30B585B0040020685049A1
:10096000884245D14B48016851F40021016000687C
:1009700010F40020049004984FF48060009002204E
:10098000019003200390474D6946280001F00AF8C2
:100990004FF4006000900020019000200290694612
:1009A000280000F0FFFF404D4048286000206860AC
:1009B0000020A8608020E860002028610020686195
:1009C0000020A8610020E861280000F07DF80028E0
:1009D00003D0C821364801F05DFB65636C620322D9
:1009E0000321342000F099FF342000F0ABFF4DE0EC
:1009F00020683049884249D12548016851F4804136
:100A00000160006810F48040049004984020009039
:100A10000220019003200390274D6946280000F032
:100A2000C1FF8020009000200190002002906946C4
:100A3000280000F0B7FF2149086850F0E06050F04E
:100A4000040008601E4D1F482860002068600020D8
:100A5000A8608020E86000202861002068610020F4
:100A6000A8610020E861280000F02EF8002803D0DB
:100A7000F8210F4801F00EFB65636C62022203212E
:100A8000252000F04AFF252000F05CFF05B030BDB6
:100A9000181002401C1002400010004000140040DA
:100AA000004C004000100140B00C00203004024017
:100AB0007036000800380140000C0140040001407D
:100AC000F40C00205800024010B40100002200295C
:100AD00001D1012045E00868DFF8183398420CD2B4
:100AE0000B68DFF81403C3181420B3FBF0F0800088
:100AF0000864DFF80803C8630BE00B68DFF8000345
:100B0000C3181420B3FBF0F080000864DFF8F4028F
:100B1000C863022081F82100086803686FF30D1391
:100B20004C6888680443C8680443086904434869FA
:100B3000044388690443C869044323430868036085
:100B4000002088620020C8620020086300204863FB
:100B500000208863012081F82100002081F8200016
:100B6000002010BC70472DE9F04104000D00160074
:100B70001F005FF0000894F82000012801D1022036
:100B80003BE0012084F8200094F8210001282DD1B9
:100B9000022084F821000020A0632068006840083B
:100BA0004000216808603B0032002900200000F06E
:100BB0000BFBE06A002806D02068006850F00E00A9
:100BC000216808600BE02068006830F004002168AC
:100BD00008602068006850F00A00216808602068FA
:100BE000006850F001002168086004E0002084F8EB
:100BF0002000022080464046C0B2BDE8F0810200DD
:100C000000201168096831F00E011368196011683D
:100C1000096849084900136819600123116C8B4069
:100C2000D16B4B60012182F82110002182F8201045
:100C3000C0B2704738B50400002594F8210002289E
:100C400004D00420A06301200500CFE020680068E4
:100C500030F00E00216808602068006840084000FD
:100C6000216808602068DFF8A011884259D3206805
:100C7000DFF89811884201D101204EE02068DFF8AA
:100C80009011884201D1102047E02068DFF88411DC
:100C9000884202D14FF480703FE02068DFF878117D
:100CA000884202D14FF4805037E02068DFF86C11A1
:100CB000884202D15FF480302FE02068DFF86011B5
:100CC000884202D15FF4801027E02068DFF85411D9
:100CD000884202D15FF080701FE02068DFF81411B5
:100CE000884201D1012018E02068DFF83C118842D9
:100CF00001D1102011E02068DFF83011884202D1C4
:100D00004FF4807009E02068DFF82411884202D196
:100D10004FF4805001E05FF48030DFF81811086074
:100D200058E02068DFF8E410884201D101204EE04D
:100D30002068DFF8DC10884201D1102047E02068ED
:100D4000DFF8D010884202D14FF480703FE0206875
:100D5000DFF8C410884202D14FF4805037E0206899
:100D6000DFF8B810884202D15FF480302FE02068AD
:100D7000DFF8AC10884202D15FF4801027E02068D1
:100D8000DFF8A010884202D15FF080701FE0206879
:100D9000DFF86010884201D1012018E02068DFF8F8
:100DA0008810884201D1102011E02068DFF87C1003
:100DB000884202D14FF4807009E02068DFF870109B
:100DC000884202D14FF4805001E05FF48030DFF8B8
:100DD000C0130860012084F82100002084F820005E
:100DE000606B002802D02000616B88472800C0B2E9
:100DF00032BD000008040240F8FFFDBF00000240C1
:100E0000F8FBFDBF000402408100024008000240E0
:100E10001C000240300002404400024058000240E2
:100E20006C000240800002401C040240300402407A
:100E3000440402400404024070B50400E06B0568FD
:100E4000206806680421206C81400D4200F0C080BB
:100E5000700740F1BD8020680068800605D42068D6
:100E6000006830F00400216808602068DFF824136F
:100E7000884258D32068DFF82013884201D104202B
:100E80004EE02068DFF81413884201D1402047E08B
:100E90002068DFF80C13884202D14FF480603FE0F5
:100EA0002068DFF80013884202D14FF4804037E019
:100EB0002068DFF8F412884202D15FF480202FE02E
:100EC0002068DFF8E812884202D15FF4800027E052
:100ED0002068DFF8DC12884202D15FF080601FE0FA
:100EE0002068DFF8D012884201D1042018E0206881
:100EF000DFF8C412884201D1402011E02068DFF8F9
:100F0000BC12884202D14FF4806009E02068DFF80B
:100F1000B012884202D14FF4804001E05FF480209B
:100F2000A84908604CE020689B49884201D1042010
:100F300044E020689949884201D140203EE0206881
:100F40009749884202D14FF4806037E02068954984
:100F5000884202D14FF4804030E0206892498842B4
:100F600002D15FF4802029E020689049884202D1B4
:100F70005FF4800022E020688D49884202D15FF052
:100F800080601BE020688B49884201D1042015E075
:100F900020688949884201D140200FE020688749B4
:100FA000884202D14FF4806008E02068844988427A
:100FB00002D14FF4804001E05FF480207449086062
:100FC000E06A002800F0E3802000E16A8847DEE064
:100FD0000221206C81400D4200F0B980B00740F141
:100FE000B68020680068800608D42068006830F069
:100FF0000A0021680860012084F821002068654902
:1010000088424DD320686449884201D1022044E0DF
:1010100020686249884201D120203EE02068604972
:10102000884202D14FF4007037E020685D49884261
:1010300002D14FF4005030E020685B49884202D171
:101040005FF4003029E020685849884202D15FF4FB
:10105000001022E020685649884202D15FF00070FB
:101060001BE020685349884201D1022015E0206826
:101070005149884201D120200FE020684F49884221
:1010800002D14FF4007008E020684D49884202D137
:101090004FF4005001E05FF400304A4908604CE032
:1010A00020683D49884201D1022044E020683B4944
:1010B000884201D120203EE020683949884202D18F
:1010C0004FF4007037E020683649884202D14FF46F
:1010D000005030E020683449884202D15FF400308B
:1010E00029E020683149884202D15FF4001022E0F3
:1010F00020682F49884202D15FF000701BE0206811
:101100002C49884201D1022015E020682A498842F2
:1011100001D120200FE020682849884202D14FF4F5
:10112000007008E020682649884202D14FF4005040
:1011300001E05FF4003016490860002084F82000C8
:10114000A06A002823D02000A16A88471FE0082158
:10115000206C81400D421AD0300718D520680068F5
:1011600030F00E00216808600121206C8140E06BA6
:1011700041600120A063012084F82100002084F850
:101180002000206B002802D02000216B884770BD12
:101190000400024081000240080002401C0002409E
:1011A0003000024044000240580002406C000240FF
:1011B00080000240080402401C0402403004024047
:1011C000440402400404024030B40125046CA540EC
:1011D000C46B6560046863604468102C04D10468C3
:1011E000A2600468E16003E00468A1600468E26052
:1011F00030BC704770477047704770472DE9F8431F
:10120000040000252078C0076BD5DFF8E8050168E9
:1012100011F00C01042907D0016811F00C01082914
:101220000CD10068C00309D5DFF8C405006880034D
:1012300057D56068002854D10120BDE16068B0F541
:10124000803F06D1DFF8A805016851F480310160C4
:1012500026E0606800280AD1DFF89405016831F4BF
:1012600080310160016831F48021016018E060681C
:10127000B0F5A02F0AD1DFF87805016851F480217C
:101280000160016851F48031016009E0DFF8600518
:10129000016831F480310160016831F4802101601E
:1012A000606800280ED000F013FF0500DFF840054D
:1012B0000068800315D400F00BFF401B6528F5D3B0
:1012C000032079E100F004FF0500DFF82405006841
:1012D000800306D500F0FCFE401B6528F5D30320F3
:1012E0006AE12078800750D5DFF80805016811F021
:1012F0000C0F07D0016811F00C01082914D1006807
:10130000C00311D4DFF8E8040168890704D5216916
:10131000012901D001204FE1016831F0F801626933
:1013200051EAC201016030E0206900281AD0012092
:10133000DFF8D014086000F0CBFE0500DFF8B00441
:101340000168890706D400F0C3FE401B0328F5D3CB
:10135000032031E1016831F0F801626951EAC2010C
:10136000016012E00020DFF89C14086000F0B0FE7D
:101370000500DFF87C040068800706D500F0A8FEB1
:10138000401B0328F5D3032016E1207800072CD555
:10139000A069002816D00120DFF86C14086000F066
:1013A00097FE0500DFF858040068800706D400F0B7
:1013B0008FFE401B0328F5D30320FDE0012000F041
:1013C00004FA12E00020DFF84014086000F080FE0C
:1013D0000500DFF82C040068800706D500F078FED1
:1013E000401B0328F5D30320E6E02078400740F1B6
:1013F00088800026DFF814743868C0000AD4386882
:1014000050F080503860386810F08050009000989C
:1014100001200600DFF8F883D8F80000C00513D4D7
:10142000D8F8000050F48070C8F8000000F050FEBA
:101430000500D8F80000C00506D400F049FE401BA6
:101440006528F6D30320B7E0E068012806D1DFF86D
:10145000C403016851F00101016025E0E068002843
:101460000AD1DFF8B003016849084900016001684A
:1014700031F00401016017E0E06805280AD1DFF8C7
:101480009403016851F004010160016851F0010109
:10149000016009E0DFF87C03016849084900016048
:1014A000016831F004010160E068002810D000F00C
:1014B0000FFE0500DFF85C030068800719D400F018
:1014C00007FE401B41F289318842F3D3032073E0C9
:1014D00000F0FEFD0500DFF83C030068800708D53A
:1014E00000F0F6FD401B41F289318842F3D303201E
:1014F00062E03000C0B2012803D1386830F080507B
:101500003860E069002856D0DFF8E872386810F0DB
:101510000C0008284DD0E069022837D1DFF8F89296
:101520000020C9F8000000F0D3FD0600DFF8C082FB
:10153000D8F80000800106D500F0CAFD801B032802
:10154000F4D3032038E0206AB0F5803F05D1396834
:1015500031F40031A06801433960396831F4741105
:10156000206A0143606A014339600120C9F8000024
:1015700000F0AEFD0500D8F8000080011BD400F09B
:10158000A7FD401B0328F6D3032015E00020DFF859
:101590008812086000F09CFD0500DFF85402006826
:1015A000800108D500F094FD401B0328F5D30320EB
:1015B00002E0012000E00020BDE8F2832DE9F041C7
:1015C00004000D000026DFF85472386810F00700A0
:1015D000A8420BD23868C008C00028433860386879
:1015E00010F00700A84201D001209BE0207880077E
:1015F00007D5DFF800120A6832F0F002A068024353
:101600000A602078C00758D56068012806D1DFF845
:10161000E0010068800311D4012083E060680228A3
:1016200006D1DFF8CC010068800107D4012079E001
:101630006F480068800701D4012073E0DFF8B481AF
:10164000D8F800108908890060680143C8F80010C4
:1016500000F03EFD0600606801280ED1D8F80000B9
:1016600010F00C00042828D000F032FD801B41F25D
:1016700089318842F2D3032054E0606802280ED1F9
:10168000D8F8000010F00C00082816D000F020FD5B
:10169000801B41F289318842F2D3032042E0D8F81E
:1016A000000010F00C0F08D000F012FD801B41F27A
:1016B00089318842F3D3032034E0386810F0070002
:1016C00085420BD23868C008C000284338603868AB
:1016D00010F00700A84201D0012023E02078400745
:1016E00006D544490A6832F4E062E06802430A60C1
:1016F0002078000707D53F48016831F4605122691E
:1017000051EAC201016000F00FF84549394A1268F8
:10171000C2F30312895CC84038490860002000F019
:10172000DDFC0020BDE8F081F0B585B001A83D49A1
:10173000102200F0F9FC3C480088ADF800000020C1
:1017400000210022002300252A4E346814F00C07E3
:10175000042F02D0082F02D01BE027481AE001A86E
:10176000C4F38347C05D0300E0030CD568463668C8
:10177000C6F34046805D01001F4800FB03F0B0FB4C
:10178000F1F0020003E0294800FB03F00200100022
:1017900000E0194805B0F0BD18480068704780B5F2
:1017A000FFF7FAFF2249134A1268C2F30222895C4A
:1017B000C84002BD80B5FFF7EFFF1D490D4A126812
:1017C000C2F3C222895CC84002BD81B00B490968DE
:1017D000C9084FF47A72B1FBF2F101FB00F10091FC
:1017E00000BF00994A1E00920029F9D101B070474C
:1017F000001002400410024000127A000400002091
:101800002410024000004242800442421C10024068
:101810000070004020100240600042420020024060
:10182000A037000890370008AE21000800093D00ED
:10183000D837000810B410F00703504C22684FF658
:10184000FF010A404E4951EA03210A43226010BCBD
:1018500070474A480068C0F302207047012210F028
:101860001F018A40474903005BB25B0941F823200E
:10187000704710B4020052B2002A09D50A01424B47
:10188000040064B214F00F04234403F8042C04E0B1
:101890000A013E4B040064B21A5510BC704770B484
:1018A000030013F00704D4F10700052801D3042036
:1018B00001E0D4F10700251D072D01D2002500E02D
:1018C000E51E012616FA00F0401E0140A94016FA56
:1018D00005F56D1E2A401143080070BC704710B515
:1018E0000400601EB0F1807F01D301200EE0601E75
:1018F000274908600F215FF0FF30FFF7BAFF002093
:1019000024490860072024490860002010BD10B554
:1019100004002000FFF78EFF10BD2DE9F041040008
:101920000D0016000027FFF794FF804632002900C3
:101930004046FFF7B4FF0100200040B2FFF799FFD7
:10194000BDE8F08110B50400200040B2FFF786FF2B
:1019500010BD10B504002000FFF7C1FF10BD042822
:1019600005D10D490A6852F004020A6004E00A49F0
:101970000A6832F004020A60704700000CED00E0D3
:101980000000FA0500E100E018ED00E000E400E0EE
:1019900014E000E018E000E010E000E080B500F0A6
:1019A000CCF901BD2DE9F84702000B000025002607
:1019B000002100275FF000085FF0000EBEF1100F5D
:1019C00080F00D81012010FA0EF005001868284003
:1019D0000600AE4240F000815868002831D001284E
:1019E00020D0022825D003283CD011281DD0122851
:1019F00023D0DFF82CC2604523D0DFF828C2604531
:101A00001FD0DFF824C260451BD0DFF820C260453C
:101A100017D0DFF81CC2604513D0DFF818C260454C
:101A20000FD022E0D86807001FE0D868001D07002B
:101A30001BE0D8680830070017E0D8680C300700B2
:101A400013E09868002802D10420070009E0986894
:101A5000012803D108200700156102E008200700D3
:101A6000556102E000200700FFE7B6F5807F01D254
:101A7000140000E0141DB6F5807F02D25FEA8E08E4
:101A800003E0BEF108085FEA88085FF00F09D4F8A8
:101A900000C019FA08F03CEA000C17FA08F050EA06
:101AA0000C0CC4F800C05868C00040F19580624832
:101AB000D0F800C05CF0010CC0F800C0006810F065
:101AC000010000900098DFF874C1704680085CF84F
:101AD00020A01EF00300C0B2800019FA00F93AEA13
:101AE000090A5748824202D15FF000091FE05548B9
:101AF000824202D15FF0010919E05348824202D1CB
:101B00005FF0020913E05148824202D15FF00309FD
:101B10000DE04F48824202D15FF0040907E04D48D2
:101B2000824202D15FF0050901E05FF006091EF074
:101B30000300C0B2800019FA00F9514659EA0101C8
:101B4000704680084CF820105868C00307D54248FA
:101B5000D0F800C056EA0C0CC0F800C006E03E48C1
:101B6000D0F800C03CEA060CC0F800C058688003FA
:101B700007D53A48D0F800C056EA0C0CC0F800C0AF
:101B800006E03648D0F800C03CEA060CC0F800C0B9
:101B90005868C00207D53248D0F800C056EA0C0C8D
:101BA000C0F800C006E02E48D0F800C03CEA060CA1
:101BB000C0F800C05868800207D52A48D0F800C095
:101BC00056EA0C0CC0F800C006E02648D0F800C069
:101BD0003CEA060CC0F800C01EF1010EEEE6BDE8BE
:101BE000F187020090680B009BB2184201D00120DF
:101BF00000E00020C0B270471300DBB2002B03D01E
:101C00000B009BB2036103E00B009BB21B0403615A
:101C10007047C3680A0092B25340C3607047000027
:101C2000000011100000121000002110000022100E
:101C3000000031100000321018100240080001406E
:101C400000080140000C0140001001400014014058
:101C500000180140001C0140000401400404014040
:101C6000080401400C04014010B500F0A1FA00F096
:101C700091F800F081F900F05AF900F0CDF800F089
:101C8000F1F800F016F900F033F900F0DEFBDFF8B0
:101C9000C8434FF480412000FFF7A3FF002825D15F
:101CA0004FF480512000FFF79CFF01281ED14FF414
:101CB00000512000FFF795FF012817D14FF4FA706B
:101CC00000F0FEFD4FF480412000FFF78AFF00285E
:101CD0000AD1DFF888430120207000F04AFC002878
:101CE000FBD002202070FEE7002025E04FF4804169
:101CF0002000FFF776FF002818D14FF48051200014
:101D0000FFF76FFF002811D14FF400512000FFF7BB
:101D100068FF00280AD14FF480412000FFF761FFDF
:101D2000002803D10320CD490870FEE70220CB49EB
:101D3000087000F078FAAAE710BD10B500F0C8F9F5
:101D40000400C648017801290BD16420B4FBF0F1EE
:101D500000FB114000281CD10221BF48FFF759FFAA
:101D600017E0017802290CD14FF47A70B4FBF0F13E
:101D700000FB114000280CD10221B748FFF749FFB2
:101D800007E00078032804D100220221B248FFF7BF
:101D900033FF10BD00B58FB0012005905FF4803097
:101DA0000690002107910121099102210C910D90CB
:101DB0005FF4E0100E9005A8FFF720FA002803D08A
:101DC000BA21A74800F066F90F2000900220019088
:101DD000002002904FF480600390002004900221C4
:101DE0006846FFF7EBFB002803D0C8219C4800F0B1
:101DF00051F9FFF7D1FC4FF47A71B0FBF1F0FFF726
:101E0000A8FD0420FFF7ABFD002200215FF0FF30AA
:101E1000FFF783FD0FB000BD1CB5924C92482060C7
:101E200040F2671060600020A06040F2E730E060A0
:101E30000020A061200000F057FD002803D0E4211D
:101E4000874800F027F900200090002001906946A3
:101E5000200000F073FE002803D0EB21804800F042
:101E600019F913BD1CB5814C8148206040F2671000
:101E700060600020A06040F2E730E0600020A061D8
:101E8000200000F031FD002803D0FD21744800F04F
:101E900001F900200090002001906946200000F028
:101EA0004DFE002804D04FF482716D4800F0F2F826
:101EB00013BD80B56F48704901604FF41651416001
:101EC0004FF4805181600021C1604FF48061016155
:101ED0000C214161002181610021C161FEF728F9D7
:101EE000002804D040F217115D4800F0D3F801BD7E
:101EF00080B56248624901604FF4165141604FF469
:101F0000805181600021C1604FF4806101610C212A
:101F10004161002181610021C161FEF709F90028BA
:101F200004D04FF495714E4800F0B4F801BD80B56F
:101F30005448016851F001010160016811F001018C
:101F400000910099016851F002010160006810F0F1
:101F5000020000900098012202210F20FFF7DDFC13
:101F60000F20FFF7EFFC022202213A20FFF7D5FCF9
:101F70003A20FFF7E7FC01BD78B585B0424801681B
:101F800051F008010160016811F008010491049901
:101F9000016851F010010160016811F01001049115
:101FA0000499016851F020010160016811F02001DD
:101FB00004910499016851F040010160006810F03B
:101FC000400004900498314C002280212000FFF74B
:101FD00013FE214D002220212800FFF70DFE0022D4
:101FE00002212800FFF708FE294E002220213000A0
:101FF000FFF702FE4FF47040009000200190012096
:10200000029069462800FFF7CDFC80200090012057
:102010000190002002900220039069462000FFF703
:10202000C1FC22200090012001900020029002209B
:10203000039069462800FFF7B5FC2020009001209E
:102040000190002002900220039069463000FFF7C3
:10205000A9FC06B070BD0000000C01405E0E00201F
:1020600018370008380D002000100040780D0020BF
:1020700000140040B80D0020004C0040F80D002076
:1020800000380140141002401810024000140140B2
:1020900000180140FEE730B4002513E050F8042B8F
:1020A000D30744BFA9F101039A18091F042942F874
:1020B000045BFAD213468C0744BF15809B1CC907EA
:1020C00048BF1D7050F8041B0029E7D130BC704791
:1020D00001480068704700BF500E002010B5040092
:1020E0004FF47A700D490978B0FBF1F00C4909689A
:1020F000B1FBF0F0FFF72DFC002801D001200CE02F
:10210000102C09D2002221005FF0FF30FFF705FC00
:1021100004480460002000E0012010BD08000020F9
:102120000400002000000020103A07D330B4B1E8CA
:102130003810103AA0E83810F9D230BC530724BF49
:10214000B1E80810A0E8081044BF51F8043B40F87B
:10215000043BD20724BF31F8022B20F8022B44BFE6
:102160000B7803707047121F17D35B0009D151F829
:10217000043B20F8023B1B0C121F20F8023BF6D256
:102180000BE051F8043B00F8013B1B0A20F8023B2E
:102190001B0C121F00F8013BF3D238BF121D521E58
:1021A00024BF11F8013B00F8013BF8D87047010249
:1021B00080B50748016851F0100101600320FFF766
:1021C000A6FB0020FFF78AFFFEF74AFB002002BDB6
:1021D0000020024010B4DFF8F01488420ED1DFF87E
:1021E000EC241178491C11701178022391FBF3F44F
:1021F00003FB1411002901D100211170DFF8D01464
:1022000088420ED1DFF8CC241178491C1170117866
:10221000022391FBF3F403FB1411002901D10021E7
:10222000117010BC704780B5DFF8AC0400F0F2F913
:1022300000F03BFDFCE710B4020000200023180072
:102240000C00C0B2E4B2A04215D21800C0B2105CBB
:1022500068280ED10800C0B21C00E4B2E41DA04200
:1022600007DB1800C0B21044C079682801D10120F2
:1022700002E05B1CE3E7002010BC70472DE9F0474B
:10228000FEB004000D0016005FF0000A00270020D9
:10229000ADF80000DFF848840020A8F80000BDF881
:1022A000000000282ED16A462100DFF82C0400F03F
:1022B00088FA00281DD0BDF80000012813D14FF482
:1022C000166000F09FF82900C9B2200000F05BF80A
:1022D0004FF4966000F096F82900C9B2200000F093
:1022E00052F801204CE0BDF80000022805D1012081
:1022F00046E04FF49660ADF80000BDF8000000F035
:1023000081F803E0BDF8000000F07CF8DFF8CC03B2
:102310000168C96851F010010268D1604FF4FA7287
:1023200001A9FDF740FF2900C9B2200000F02BF8F9
:10233000FFF7CEFE8146FFF7CBFEB0EB0900310080
:1023400089B2814201D2002019E0DFF89813487861
:102350000028F0D001A8B8F80020104410F8010CB3
:10236000162804D0002048703800C0B208E00020D1
:102370004870B8F8001001A800F02BF80120C0B296
:102380007EB0BDE8F087F8B504000D00DFF85863B3
:10239000002220213000FFF72FFC00273800290001
:1023A000C0B2C9B288420AD2D04800684006FBD504
:1023B0003800C0B2205CCE4908607F1CEEE7CB48F5
:1023C00000684006FBD5012220213000FFF714FCF5
:1023D000F1BD10B4002213000C009BB2A4B2A342C2
:1023E0000AD2C44B1B685B06FBD513009BB2C35CCF
:1023F000C14C2360521CEEE7BE4B1B685B06FBD54D
:1024000010BC704770B50400200100F085FC01008D
:10241000BA4800F08FFC0500280000F009FD060016
:10242000300080B200F078FC0100280000F016FDBA
:102430005FF0834100F052FD00F0FAFC360186198E
:10244000310089B2AE4A116070BD80B500F0E8FB82
:1024500001BD2DE9FF4704000D0016005FF00009E3
:1024600000276846A7491022FFF75EFE2000FFF70D
:10247000C9FFDFF86CA20020AAF8000097480168A5
:10248000C96851F010010268D1604FF4FA72290056
:10249000FDF789FE10216846FFF775FFFFF718FE6C
:1024A0008046FFF715FEB0EB0800B04201D30020D4
:1024B00011E0DFF8309299F801000028F1D0BAF865
:1024C0000010C9B22800FFF7B6FE0028E9D00120AD
:1024D000002189F80110C0B204B0BDE8F0872DE9F1
:1024E000FC47AEB004000D001600200000F092F88A
:1024F0002900200000F02EF9002801D0012035E04D
:10250000280000F0C1F907005FF000084046C0B2A3
:10251000082809DA4046C0B2385C69464246D2B261
:10252000885418F10108F1E70821684600F073FDAE
:1025300081465FF0000A5046C0B204280DDA5046CA
:10254000C0B239F8100002A95246D2B201EB4201E2
:10255000A1F898001AF1010AEDE728A92FA800F0C8
:1025600003FF002801D0012000E0002030B0BDE8CA
:10257000F08730B587B000254FF47A7269464FF482
:102580009660FFF766FF00280FD04FF49664230093
:102590009BB22A00D2B269464F48FFF7A0FF00283D
:1025A00001D0012034E0002032E04FF47A72694615
:1025B0004FF41660FFF74DFF00280FD04FF416645C
:1025C00023009BB22A00D2B269464348FFF787FF37
:1025D000002801D001201BE0002019E04FF47A729E
:1025E00069464FF41650FFF734FF00280FD04FF420
:1025F000165423009BB22A00D2B269463648FFF730
:102600006EFF002801D0012002E0002000E0002041
:1026100007B030BD2DE9F84185B00400012214F166
:102620009601394800F08AFEB4F896004FF6FF7123
:10263000884203D10020A4F8960042E05FF0000831
:102640004046B4F8961080B288423AD204226946D5
:1026500043469BB22D4810EBC30000F06FFE0321F0
:10266000684600F0A7FC070000200500280080B2A3
:1026700006280EDA414689B20620414304EB0100E8
:10268000290089B20844290089B2795C81716D1CE6
:10269000ECE76846C188424692B204EB4202A2F8D7
:1026A000721000210E00310089B20A2906DA0021D9
:1026B000320092B220F81210761CF4E718F10108EB
:1026C000BEE706B0BDE8F081380D00205C0E0020AA
:1026D000780D00205D0E0020000C0020F80D002079
:1026E000580E00200C080020000C0140003801406A
:1026F00004380140004C0040044C00404054894CD8
:10270000083801408037000800F0030800F803088B
:1027100010B40200100000231C00E4B20A2C17DAE7
:102720001C00E4B2045D682C10D11C00E4B2044427
:10273000E479682C09D11C00E4B2045D0C705B1CC8
:102740001C00E4B21444200002E001E05B1CE3E75B
:1027500010BC70477CB504000E0069463000FFF7DE
:10276000D7FF010000221000B4F8963080B29842E2
:1027700025D2062013009BB2434323449B790E7855
:10278000B3421AD100231D002B009BB2062B14DA92
:1027900013009BB2434323442E00B6B233449B79CB
:1027A0002E00B6B28E5DB34205D12B009BB2052B35
:1027B00001D1012004E06D1CE6E7521CD3E70020A4
:1027C00076BDF8B504000D00160069462800FFF735
:1027D0009FFF01009DF80000682803D00220308090
:1027E000012050E000221000B4F8963080B29842E8
:1027F00030D2062013009BB2434323449B7991F8C7
:1028000000C0634524D100231F003B009BB2062B70
:102810001EDA13009BB243432344BC461FFA8CFCD0
:1028200063449B79BC461FFA8CFC11F80CC06345CD
:102830000CD13B009BB2052B08D1100080B204EBF9
:102840004000B0F87200308001201CE07F1CDCE703
:10285000521CC8E70878992814D100200200100003
:1028600080B206280EDA100080B2085C992809D1DF
:10287000100080B2052803D101203080012002E041
:10288000521CECE70020F2BD0100080000221300FA
:10289000DBB20A2B13DA1300DBB2C35C682B0CD15A
:1028A0001300DBB20344DB79682B05D1521C130003
:1028B000DBB20B44180002E001E0521CE7E770476E
:1028C00070B50400FFF704FC0500260016F1010FA7
:1028D00002D0044800788619FFF7FAFB401BB0428B
:1028E000FAD370BD0800002010B50400002C01D1FF
:1028F000012014E094F83D00002805D1002084F860
:102900003C002000FDF7F7FF022084F83D00211D68
:10291000206800F0C0F8012084F83D00002010BDC0
:1029200010B504002068006980071AD52068C068C7
:10293000800716D57FF0020021680861012020770A
:102940002068806910F0030F03D0200000F0A4FD80
:1029500005E0200000F0A1FD200000F09FFD002018
:1029600020772068006940071AD52068C0684007B2
:1029700016D57FF0040021680861022020772068C6
:10298000806910F4407F03D0200000F085FD05E051
:10299000200000F082FD200000F080FD0020207764
:1029A0002068006900071AD52068C068000716D59E
:1029B0007FF0080021680861042020772068C06942
:1029C00010F0030F03D0200000F066FD05E02000AA
:1029D00000F063FD200000F061FD002020772068FA
:1029E0000069C0061AD52068C068C00616D57FF0F9
:1029F000100021680861082020772068C06910F461
:102A0000407F03D0200000F047FD05E0200000F0EB
:102A100044FD200000F042FD00202077206800697E
:102A2000C0070AD52068C068C00706D57FF001003E
:102A3000216808612000FFF7CDFB206800690006CF
:102A40000AD52068C068000606D57FF0800021689E
:102A50000861200000F023FD2068006940060AD5C7
:102A60002068C068400606D57FF0400021680861F4
:102A7000200000F015FD2068006980060AD5206856
:102A8000C068800606D57FF020002168086120001C
:102A900000F007FD10BD10B400220468DFF8883094
:102AA000984212D0DFF8842090420ED0B0F1804FCF
:102AB0000BD0DFF87C20904207D0DFF878209042DE
:102AC00003D0DFF87420904203D134F070044A68D8
:102AD000144398420FD0DFF8542090420BD0B0F14D
:102AE000804F08D0124A904205D0124A904202D03C
:102AF000114A904203D134F44074CA68144334F04C
:102B000080044A69144304608A68C2620A68826267
:102B1000984202D0054A904201D10A69026301221B
:102B2000426110BC70470000002C0140003401409D
:102B30000004004000080040000C0040020092F831
:102B40003C00012801D1022024E0012082F83C0051
:102B5000022082F83D001068406830F07000136871
:102B60005860106843680868034310684360106841
:102B7000806830F080001368986010688368486847
:102B8000034310688360012082F83D00002082F832
:102B90003C000020704700001CB5040053488442EC
:102BA0001ED120680068C0061AD500200090206859
:102BB0000068009020684068009000982000FDF7B1
:102BC0004DFB2000FDF783FB49484A4909684968E5
:102BD00001800188D1F5FA71018001204649087011
:102BE000464884421BD120680068C00617D50020E3
:102BF000009020680068009020684068009000986D
:102C00002000FDF72BFB3E483E49096849680180DA
:102C10000188D1F5FA71018001203B49487013BD4C
:102C200080B532480168C96851F010010268D1606E
:102C30004FF4FA723549FDF7B6FA002080F3108898
:102C400001BDF8B5FFF744FA05000026304F4FF4F8
:102C500000413800FEF7C5FF002808D13000C0B29F
:102C6000002804D1FFF734FA0400012006004FF4D5
:102C700000413800FEF7B5FF002815D13000C0B282
:102C8000002811D0281B41F2893188420CD34FF41F
:102C900000413800FEF7A5FF002805D100F0BEFB7B
:102CA00003201C490870FEE7F1BD70B5124C207876
:102CB000012818D1154D0E4E40F6B8323188280043
:102CC000FFF7DCFA00203080002020700748016800
:102CD000C96851F010010268D1604FF4FA722900FE
:102CE000FDF761FAE2E7FFF7ACFF70BDB80D002019
:102CF0005A0E0020B00C00205F0E0020F80D0020BE
:102D0000580E0020F40C00200C0800200C0A0020B3
:102D1000000C01405E0E002000280AD0B0FA80F1BD
:102D20008840D1F19D01C905020672F1004241EBD4
:102D30001020704710B5FF2313EAD0541DBF13EACB
:102D4000D1529C429A4239E0A41ADA0780EA010380
:102D5000134042EA012142EA0020421A3CBF641EAD
:102D600001EB4202090AB2FBF1FE01FB1E22120234
:102D7000B2FBF1F001FB10226EF30F201202B2FB46
:102D8000F1FE4EEA00207F3406DDFE2C24DA53EA01
:102D9000500050EBC45010BDD4F1020401FB1E22C0
:102DA00040F08071192C1DDC21FA04F0C4F12004DC
:102DB000A140114371F10042584110BD9C421ABF1D
:102DC00003EAD1529A420FE080EA010E0EF000436E
:102DD000400004D0490016D143F0FF4010BD490027
:102DE00008BFD343180010BD9C4205D1D21AF7D0BA
:102DF00001F00041484010BD4A0212BF0846484059
:102E000000F0004010BD4AB90902B1FA81F29140C8
:102E100044B1A418C00140F000409EE7C90141F050
:102E2000004152420002B0FA80F4A040141B94E723
:102E3000C0F3C7517E390EDDC217D1F1200106DD86
:102E4000000240F00040C840104450407047D0435A
:102E500080F00040704700207047000090EA010FAA
:102E600040F1208381F00041421A3CBF801A89184A
:102E70004FF0004CC0F3C752FF2A24D0C1F3C75310
:102E800013B3D21AD2F1190327DD4CEA01214CFA0F
:102E900003F321EA0303D140C20D4CEA002040189D
:102EA00034BF20EA0C004CEA5000D20553EA00631C
:102EB00073EB0C0C52EB1020420012F1807F38BFF4
:102EC0007047C00DC0057047490212BF9A4200EB1F
:102ED0005120F8E7D2F11703D9D57047FF2212EA43
:102EE000D05C1DBF12EAD153944593422BE09C4421
:102EF000D30780EA01021A4043EA002043EA012195
:102F0000A1FB0030C04238BF40007CF17F010BDBE9
:102F1000FE294ADA5B0842EAC15153EA006373F1C1
:102F2000004C51EB10207047D1F1080CDCF120016E
:102F30002FDB5B0810FA01F10B4320FA0CF073F160
:102F400000415041704794451CBF02EAD15393425F
:102F500080EA010202F000421DD0400019D0490071
:102F600017D05BB9634514D00902B1FA81F39940D7
:102F7000BCEB030CC00140F00040C1E70002B0FA16
:102F800080FC10FA0CF0B3EB0C0CC90141F00041CD
:102F9000B6E71000704740000AD0490008D010F191
:102FA000807F94BF11F1807F02E042F0FF407047C4
:102FB000D043704770B4020000200300DBB20C0065
:102FC000E4B2B3EB440F06DA00233B4C0500EDB24C
:102FD0006355401CF1E70023002420000D00C0B21F
:102FE000EDB2A84214D234482500EDB232F81550A3
:102FF0001E00F6B2064475702500EDB232F8155089
:10300000ADB22D0A1E00F6B285559B1C641CE4E788
:10301000294870BC704770B4020000200B00DBB27E
:10302000022493FBF4F30400E4B29C4207DA002389
:10303000224C0500EDB224F81530401CEEE70023C9
:1030400000240800C0B2022590FBF5F02500EDB287
:10305000854210DA1800C0B2105C1D00EDB21544B4
:103060006D7855EA002515482600F6B220F816506E
:103070009B1C641CE5E7114870BC704710B4104AF3
:10308000126802FB00F20F4B1A600F4A0023136014
:103090000E4B1C6854F001041C601C68210011F0E8
:1030A0000114012CF9D01C68640864001C60002322
:1030B000136010BC70470000480E0020380E00203E
:1030C000540E002014E000E018E000E010E000E002
:1030D000DFF89C03DFF89C130160DFF89C130160AC
:1030E0007047DFF89803016851F080010160704774
:1030F000DFF88C030168C80701D5012008E0480704
:1031000001D5022004E0C80601D5032000E000201C
:10311000704738B50400FFF7EBFF05002800C0B288
:10312000012807D10120FFF7A9FF641E200080B20B
:103130000028F0D1200080B2002801D1FF20050036
:103140002800C0B232BDF8B50400002745F6FF756F
:103150002800FFF7DEFF06003000C0B2002816D1BD
:10316000C64F386850F002003860C64804603868BE
:1031700050F0400038602800FFF7CBFF0600300019
:10318000C0B2012803D0386830F002003860300047
:10319000C0B2F2BDF8B504000D00FF20FFF7B9FF83
:1031A00006003000C0B2002811D1B44F386850F08A
:1031B000010038602580FF20FFF7ABFF06003000DC
:1031C000C0B2012803D038684008400038603000A1
:1031D000C0B2F2BD00887047F8B504000D001600BB
:1031E00000273800310080B289B2884209D2380005
:1031F00080B235F810102000FFF7CCFFA41C7F1C14
:10320000EFE7F1BD2DE9F84F04000D001600B4F111
:10321000006F02D39C48844200D38DE0FFF758FF33
:1032200014F178400090009FFF0A0098C0F3490B0A
:10323000DBF580684046310080B289B2884200D315
:10324000B046DFF848924FF4806249464FF4006080
:1032500000FB07F010F1006000F070F800208246DB
:103260005046414680B289B288420DD2594689B251
:10327000504680B2411839F811004FF6FF7188426C
:1032800002D11AF1010AEBE75046414680B289B2F9
:10329000884229D24FF4006000FB07F010F1006073
:1032A000FFF751FF002082465046414680B289B266
:1032B00088420DD2514689B2584680B241185046D4
:1032C00080B235F8100029F811001AF1010AEBE775
:1032D0004FF4806249464FF4006000FB07F010F1A4
:1032E0000060FFF779FF05E0424692B22900200016
:1032F000FFF772FF3000414680B289B2884202D1A6
:10330000FFF7EFFE18E07F1C00208346404680B2A6
:1033100005EB4005404680B214EB4004B6EB0806CE
:10332000300080B240F20141884203DB4FF48060FC
:10333000804686E7B04684E7BDE8F18FF8B5040023
:103340000D00160000273800310080B289B2884293
:1033500009D22000FFF73EFF390089B225F811009D
:10336000A41C7F1CEFE7F1BD2DE9F041ACB00400D7
:103370000D002088B0F5966F09D0B0F5166F07D014
:10338000B0F5965F05D0B0F5165F03D003E004E01A
:1033900003E002E001E000203DE0012080F310881E
:1033A0003B4E370001220DF196013800FFF7C6FFB2
:1033B000BDF896004FF6FF71884202D10020ADF8AB
:1033C0009600BDF89600102801DB002023E0BDF830
:1033D0009600DFF8C08018EBC008032229004046A1
:1033E000FFF710FF18F10608012221004046FFF701
:1033F00009FFBDF89600401CADF896003000FFF7BD
:10340000A2FE01220DF196013000FFF7FBFE002025
:1034100080F3108801202CB0BDE8F08138B5A0B051
:10342000012080F3108800242000C0B2402808DA70
:103430004FF6FF7069462200D2B221F81200641CD8
:10344000F2E7134D2800FFF77EFE012269462800AF
:10345000FFF7D8FE0F4D2800FFF775FE40226946A2
:103460002800FFF7CFFE002080F3108821B030BD88
:103470000420024023016745AB89EFCD10200240B4
:103480000C20024014200240000004080C00002020
:1034900000F0030800F80308704770477047704752
:1034A00070477047431A4FF000423EBF5340C01A66
:1034B000C91800BFD3095FEAD05C13EB400F34BFDB
:1034C000B3EB410F40E07CEBD1530CD342EA012136
:1034D00022D8D1EB402009D3400A28BF5FEA50012F
:1034E00040EBCC507047401A15D04002B0FA80F241
:1034F000521C9040400A4FEA3C23B3EB026384BF66
:1035000000EB730007E040F400001A16DB07C2F17D
:103510000102D04018437047182BFCDC31FA03F24B
:1035200002FA03F3591A38BF42F00102D2EB4020ED
:103530003CBF4000ACF1010C5FEACC5CC20572F10B
:1035400000414CEB5020704713EB400F0FD2C942A3
:1035500009D0ACEBD153022B03DB4902172BDDDD85
:1035600070479143401AC042D5D10020704713EBF9
:10357000410FD0D36FF00000704700007047FEE7A6
:10358000FEE7FEE7FEE770477047704780B500F042
:1035900037F8FEF703FA01BD704780B51248FDF712
:1035A0004BFC01BD10B5114C2000FCF7D2FE2000F1
:1035B000FFF7F2FA10BD10B50D4C2000FFF7ECFA42
:1035C0002000FCF7C6FE10BD80B50A48FFF7A8F939
:1035D00001BD80B50848FFF7A3F901BD80B50748D4
:1035E000FDF72AFC01BD0000F40C0020F80D0020BE
:1035F000B80D0020380D0020780D0020B00C002000
:1036000003490A680348007882180A60704700BFBF
:10361000500E0020080000200F49086850F00100FB
:1036200008600E4A13680E48034013600B680D488B
:1036300003400B60086830F480200860106830F4A4
:10364000FE0010605FF41F00074908605FF0006033
:103650000649086070470000001002400410024054
:103660000000FFF8FFFFF6FE0810024008ED00E042
:10367000463A5C62756164726174655C425F4D6478
:1036800064756C655C5372635C73746D3332663160
:1036900078785F68616C5F6D73702E630000000066
:1036A00030B450F8041B79B1026843680244083012
:1036B000DC0744BFA9F10104E31852F8045B43F8A6
:1036C000045B091FF9D1ECE730BC704710B507491E
:1036D00079441831064C7C44163404E00A68081D0D
:1036E000114488470146A142F8D110BD08000000EE
:1036F00028000000A3E9FFFF540E00000C0000208A
:10370000000000009DFFFFFF0C000000C000000053
:103710000000002000000000463A5C62756164729F
:103720006174655C425F4D6464756C655C53726383
:103730005C6D61696E2E630000F00DF8002801D009
:10374000FFF7C4FFAFF300800020AFF30080FEF767
:103750008BFA00F002F80120704700F001B8000079
:103760000746384600F002F8FBE7000080B5AFF3EB
:103770000080024A11001820ABBEFBE726000200C1
:10378000FEFEFEFE68AAAAAAAAAAAA681300DF166D
:1037900002030405060708090A0B0C0D0E0F101092
:1037A00000000000000000000102030406070809F1
:1037B000014880470148004719360008C137000812
:1037C000AFF30080AFF30080FFF7B6FF10000000FA
:1037D00000A24A04010000000000000001020304EE
:1037E000FFF7FEBFFFF7FEBFFFF7FEBFFFF7FEBF0D
:1037F000FFF7FEBFFFF7FEBFFFF7FEBFFFF7FEBFFD
:10380000FFF7FEBFFFF7FEBFFFF7FEBFFFF7FEBFEC
:10381000FFF7FEBFFFF7FEBFFFF7FEBFFFF7FEBFDC
:10382000FFF7FEBFFFF7FEBFFFF7FEBFFFF7FEBFCC
:10383000FFF7FEBFFFF7FEBFFFF7FEBFFFF7FEBFBC
:10384000FFF7FEBFFFF7FEBFFFF7FEBFFFF7FEBFAC
:10385000FFF7FEBFFFF7FEBFFFF7FEBFFFF7FEBF9C
:10386000FFF7FEBFFFF7FEBFFFF7FEBFFFF7FEBF8C
:10387000FFF7FEBFFFF7FEBFFFF7FEBFFFF7FEBF7C
:10388000FFF7FEBFFFF7FEBFFFF7FEBFFFF7FEBF6C
:10389000FFF7FEBFFFF7FEBFFFF7FEBFFFF7FEBF5C
:1038A000FFF7FEBFFFF7FEBFFFF7FEBFFFF7FEBF4C
:0438B000FFF7FEBF61
:04000005080037C1F7
:00000001FF
