:020000040800F2
:10000000F8070020952800086526000867260008E4
:10001000692600086B2600086D2600080000000015
:100020000000000000000000000000006F26000833
:1000300071260008000000007326000875260008DD
:10004000C5280008C9280008CD280008D1280008C4
:10005000D528000881260008D9280008DD280008D6
:10006000E1280008E5280008E9280008ED28000834
:10007000F1280008F5280008F92800088326000860
:10008000FD280008012900080529000809290008A1
:100090000D29000811290008152900081929000850
:1000A0001D29000821290008252900082929000800
:1000B0002D290008312900083529000839290008B0
:1000C0003D29000841290008452900084929000860
:1000D0004D2900088D2600085129000855290008DF
:1000E000592900085D2900086129000865290008D0
:1000F000692900086D290008712900087529000880
:10010000792900087D29000881290008852900082F
:100110009F26000889290008B9260008C326000880
:100120008D29000891290008CD260008952900088E
:1001300010B50400002C01D1012033E0A069002893
:10014000FFD194F83900002805D1002084F8380048
:10015000200000F020FC242084F839002068C068CA
:1001600030F400502168C860200000F0D3FA206805
:10017000006930F49040216808612068406930F0DF
:100180002A00216848612068C06850F40050216846
:10019000C8600020E063202084F83900202084F823
:1001A0003A00002010BD10B4030093F83A00202854
:1001B0002FD1002903D0100080B2002801D10120E6
:1001C00028E093F83800012801D1022022E0012024
:1001D00083F8380099629A85DA850020D863222056
:1001E00083F83A00002083F838001868C06850F49B
:1001F00080701C68E0601868406950F001001C685D
:1002000060611868C06850F020001C68E060002041
:1002100000E0022010BC704773B50400150094F88C
:100220003A00202851D10198002803D0280080B23C
:10023000002801D1012049E094F83800012801D1BB
:10024000022043E0012084F838000198A062A585CF
:100250000020E063222084F83A000FF28120616BD5
:1002600088620FF2BD20616BC8620FF2C520616B1E
:1002700008630020616B486301AE2B009BB23268BB
:100280002068011D606B00F08EFC0020009020684B
:10029000006800902068406800900098002084F872
:1002A00038002068C06850F480702168C8602068F9
:1002B000406950F00100216848612068406950F0B1
:1002C000400021684861002000E0022076BD70B542
:1002D0000600002031684C69E40914F0010496F826
:1002E0003910212910D1002C0ED03068406930F02F
:1002F000800031684861306B002802D0306B00F01C
:100300009EFC300000F040F930684569AD0915F0F9
:10031000010596F83A00222810D1002D0ED0306841
:10032000406930F0400031684861706B002802D0AD
:10033000706B00F084FC300000F030F9002070BDDC
:1003400010B504002068C06830F490702168C8605F
:100350002068406940084000216848612068406981
:1003600040060ED52068406930F0400021684861A1
:10037000606B002805D00020616B4863606B00F063
:100380005EFC0020E085202084F83A00002010BDAB
:100390002DE9F8430600306807683068D0F80C8013
:1003A0003068D0F814900020002517F00F04002CBE
:1003B00008D1B80606D55FEA886003D5300000F0A2
:1003C00052F988E0002C74D05FEAC97002D418F4A6
:1003D000907F6ED017F00100C0B2002806D05FEA0F
:1003E000C85003D5F06B50F00100F063780708D5D2
:1003F00019F00100C0B2002803D0F06B50F00200E9
:10040000F063B80708D519F00100C0B2002803D086
:10041000F06B50F00400F063380708D519F00100C4
:10042000C0B2002803D0F06B50F00800F063F06B0E
:1004300000283DD0B80605D55FEA886002D53000B7
:1004400000F011F930684069800910F001000500E2
:10045000F06B000701D4002D25D0300000F09EF88D
:100460003068406940061AD53068406930F0400075
:1004700031684861706B00280DD00FF24510716B28
:100480004863706B00F0F6FB002811D0706B716B45
:10049000496B88470CE0300000F0CCFE08E03000EB
:1004A00000F0C8FE04E0300000F0C4FE0020F0635D
:1004B00011E0380606D55FEA086003D5300000F089
:1004C0008BF808E0780606D55FEA486003D530006F
:1004D00000F0B9F8FFE7BDE8F183000038B504008B
:1004E000656A20680068800616D40020E8852868C0
:1004F000C06830F480702968C86028684069400886
:100500004000296848612868406930F04000296847
:100510004861202085F83A00280000F08CFE31BDAB
:1005200038B50400656A280000F086FE31BD000081
:10053000F8B506000020776A39684C69E40914F0C0
:10054000010497F83910212906D1002C04D000208D
:10055000F884380000F018F838684569AD0915F0DE
:10056000010597F83A00222806D1002D04D000207A
:10057000F885380000F012F8F86B50F01000F863BE
:10058000380000F057FEF1BD0168C96831F0C001C4
:100590000268D160202180F8391070470168C9686D
:1005A00031F490710268D1600168496949084900D5
:1005B00002685161202180F83A1070470000000065
:1005C00038B50400656A0020E8850020E88428002A
:1005D00000F030FE31BD0000010091F83900212803
:1005E0002FD18868B0F5805F11D1086A02001088A9
:1005F000C005C00D0B6858600869002803D1086A5F
:10060000801C086209E0086A401C086205E0086A6C
:10061000431C0B6200780B685860C88C401EC8846D
:1006200080B200280BD10868C06830F080000B68E9
:10063000D8600868C06850F040000B68D86000209F
:1006400000E00220704710B504002068C06830F058
:1006500040002168C860202084F83900200000F0A4
:10066000ECFD002010BD38B5040094F83A002228B3
:100670004ED1A068B0F5805F16D1A06A0500206950
:10068000002808D120684068C005C00D2880A06AF5
:10069000801CA0621AE02068406800F0FF002880FB
:1006A000A06A401CA06211E02069002806D1A06A5F
:1006B000411CA16221684968017007E0A06A411CE1
:1006C000A1622168496811F07F010170E08D401E30
:1006D000E08580B2002819D12068C06830F0200081
:1006E0002168C8602068C06830F480702168C860E4
:1006F000206840694008400021684861202084F853
:100700003A00200000F097FD002002E0002000E009
:10071000022032BD2DE9F843050000242868016954
:1007200031F44051E868014328680161A9682869EB
:100730000143686901430C432868C1685648014079
:1007400021432868C1602868416931F44071A86973
:100750000143286841612868504988424DD101F021
:1007600049F8060001F046F8070001F043F880461A
:1007700001F040F8814601F03DF86421192256430A
:100780006B689B00B6FBF3F36426B3FBF6F35743A9
:100790006E68B600B7FBF6F602FB08F86F68BF009C
:1007A000B8FBF7F75FF0640CB7FBFCF701FB1766CB
:1007B000360132366427B6FBF7F616F0F00616EB74
:1007C000031602FB09F96B689B00B9FBF3F302FB0C
:1007D00000F268688000B2FBF0F06422B0FBF2F037
:1007E00001FB1031080132306421B0FBF1F010F050
:1007F0000F008619286886604CE000F0F0FF0600C4
:1008000000F0EDFF070000F0EAFF804600F0E7FF90
:10081000814600F0E4FF6421192256436B689B0077
:10082000B6FBF3F36426B3FBF6F357436E68B600EA
:10083000B7FBF6F602FB08F86F68BF00B8FBF7F7E6
:100840005FF0640CB7FBFCF701FB1766360132362C
:100850006427B6FBF7F616F0F00616EB031602FB5C
:1008600009F96B689B00B9FBF3F302FB00F26868BF
:100870008000B2FBF0F06422B0FBF2F001FB10311B
:10088000080132306421B0FBF1F010F00F0086193E
:1008900028688660BDE8F183F3E9FFFF0038014076
:1008A00080B58B48016851F001010160006810F0CB
:1008B0000100009000988748016851F08051016064
:1008C000006810F0805000900098052001F03FF87B
:1008D000002200217FF00B0001F03FF800220021F0
:1008E0007FF00A0001F039F8002200217FF00900B2
:1008F00001F033F8002200217FF0040001F02DF810
:10090000002200217FF0030001F027F800220021DF
:100910007FF0010001F021F8002200215FF0FF309C
:1009200001F01BF800220021052001F016F8052037
:1009300001F028F801BD1CB5040020686649884212
:1009400012D16448016851F010010160006810F094
:1009500010000090009802220121362000F0FDFFD7
:10096000362001F00FF815E020685C49884211D16B
:100970005848016851F020010160006810F0200023
:100980000090009801220121372000F0E6FF372077
:1009900000F0F8FF13BD30B585B004002068504961
:1009A000884245D14B48016851F40021016000683C
:1009B00010F40020049004984FF48060009002200E
:1009C000019003200390474D6946280001F00AF882
:1009D0004FF40060009000200190002002906946D2
:1009E000280000F0FFFF404D40482860002068606C
:1009F0000020A8608020E860002028610020686155
:100A00000020A8610020E861280000F07DF800289F
:100A100003D0C821364801F009FB65636C620322EC
:100A20000321342000F099FF342000F0ABFF4DE0AB
:100A300020683049884249D12548016851F48041F5
:100A40000160006810F480400490049840200090F9
:100A50000220019003200390274D6946280000F0F2
:100A6000C1FF802000900020019000200290694684
:100A7000280000F0B7FF2149086850F0E06050F00E
:100A8000040008601E4D1F48286000206860002098
:100A9000A8608020E86000202861002068610020B4
:100AA000A8610020E861280000F02EF8002803D09B
:100AB000F8210F4801F0BAFA65636C620222032143
:100AC000252000F04AFF252000F05CFF05B030BD76
:100AD000181002401C10024000100040001400409A
:100AE000004C00400010014064020020300402402D
:100AF0006427000800380140000C01400400014058
:100B0000A80200205800024010B401000022002971
:100B100001D1012045E00868DFF8183398420CD273
:100B20000B68DFF81403C3181420B3FBF0F0800047
:100B30000864DFF80803C8630BE00B68DFF8000304
:100B4000C3181420B3FBF0F080000864DFF8F4024F
:100B5000C863022081F82100086803686FF30D1351
:100B60004C6888680443C8680443086904434869BA
:100B7000044388690443C869044323430868036045
:100B8000002088620020C8620020086300204863BB
:100B900000208863012081F82100002081F82000D6
:100BA000002010BC70472DE9F04104000D00160034
:100BB0001F005FF0000894F82000012801D10220F6
:100BC0003BE0012084F8200094F8210001282DD179
:100BD000022084F821000020A063206800684008FB
:100BE0004000216808603B0032002900200000F02E
:100BF0000BFBE06A002806D02068006850F00E0069
:100C0000216808600BE02068006830F0040021686B
:100C100008602068006850F00A00216808602068B9
:100C2000006850F001002168086004E0002084F8AA
:100C30002000022080464046C0B2BDE8F08102009C
:100C400000201168096831F00E01136819601168FD
:100C5000096849084900136819600123116C8B4029
:100C6000D16B4B60012182F82110002182F8201005
:100C7000C0B2704738B50400002594F8210002285E
:100C800004D00420A06301200500CFE020680068A4
:100C900030F00E00216808602068006840084000BD
:100CA000216808602068DFF8A011884259D32068C5
:100CB000DFF89811884201D101204EE02068DFF86A
:100CC0009011884201D1102047E02068DFF884119C
:100CD000884202D14FF480703FE02068DFF878113D
:100CE000884202D14FF4805037E02068DFF86C1161
:100CF000884202D15FF480302FE02068DFF8601175
:100D0000884202D15FF4801027E02068DFF8541198
:100D1000884202D15FF080701FE02068DFF8141174
:100D2000884201D1012018E02068DFF83C11884298
:100D300001D1102011E02068DFF83011884202D183
:100D40004FF4807009E02068DFF82411884202D156
:100D50004FF4805001E05FF48030DFF81811086034
:100D600058E02068DFF8E410884201D101204EE00D
:100D70002068DFF8DC10884201D1102047E02068AD
:100D8000DFF8D010884202D14FF480703FE0206835
:100D9000DFF8C410884202D14FF4805037E0206859
:100DA000DFF8B810884202D15FF480302FE020686D
:100DB000DFF8AC10884202D15FF4801027E0206891
:100DC000DFF8A010884202D15FF080701FE0206839
:100DD000DFF86010884201D1012018E02068DFF8B8
:100DE0008810884201D1102011E02068DFF87C10C3
:100DF000884202D14FF4807009E02068DFF870105B
:100E0000884202D14FF4805001E05FF48030DFF877
:100E1000C0130860012084F82100002084F820001D
:100E2000606B002802D02000616B88472800C0B2A8
:100E300032BD000008040240F8FFFDBF0000024080
:100E4000F8FBFDBF000402408100024008000240A0
:100E50001C000240300002404400024058000240A2
:100E60006C000240800002401C040240300402403A
:100E7000440402400404024070B50400E06B0568BD
:100E8000206806680421206C81400D4200F0C0807B
:100E9000700740F1BD8020680068800605D4206896
:100EA000006830F00400216808602068DFF824132F
:100EB000884258D32068DFF82013884201D10420EB
:100EC0004EE02068DFF81413884201D1402047E04B
:100ED0002068DFF80C13884202D14FF480603FE0B5
:100EE0002068DFF80013884202D14FF4804037E0D9
:100EF0002068DFF8F412884202D15FF480202FE0EE
:100F00002068DFF8E812884202D15FF4800027E011
:100F10002068DFF8DC12884202D15FF080601FE0B9
:100F20002068DFF8D012884201D1042018E0206840
:100F3000DFF8C412884201D1402011E02068DFF8B8
:100F4000BC12884202D14FF4806009E02068DFF8CB
:100F5000B012884202D14FF4804001E05FF480205B
:100F6000A84908604CE020689B49884201D10420D0
:100F700044E020689949884201D140203EE0206841
:100F80009749884202D14FF4806037E02068954944
:100F9000884202D14FF4804030E020689249884274
:100FA00002D15FF4802029E020689049884202D174
:100FB0005FF4800022E020688D49884202D15FF012
:100FC00080601BE020688B49884201D1042015E035
:100FD00020688949884201D140200FE02068874974
:100FE000884202D14FF4806008E02068844988423A
:100FF00002D14FF4804001E05FF480207449086022
:10100000E06A002800F0E3802000E16A8847DEE023
:101010000221206C81400D4200F0B980B00740F100
:10102000B68020680068800608D42068006830F028
:101030000A0021680860012084F8210020686549C1
:1010400088424DD320686449884201D1022044E09F
:1010500020686249884201D120203EE02068604932
:10106000884202D14FF4007037E020685D49884221
:1010700002D14FF4005030E020685B49884202D131
:101080005FF4003029E020685849884202D15FF4BB
:10109000001022E020685649884202D15FF00070BB
:1010A0001BE020685349884201D1022015E02068E6
:1010B0005149884201D120200FE020684F498842E1
:1010C00002D14FF4007008E020684D49884202D1F7
:1010D0004FF4005001E05FF400304A4908604CE0F2
:1010E00020683D49884201D1022044E020683B4904
:1010F000884201D120203EE020683949884202D14F
:101100004FF4007037E020683649884202D14FF42E
:10111000005030E020683449884202D15FF400304A
:1011200029E020683149884202D15FF4001022E0B2
:1011300020682F49884202D15FF000701BE02068D0
:101140002C49884201D1022015E020682A498842B2
:1011500001D120200FE020682849884202D14FF4B5
:10116000007008E020682649884202D14FF4005000
:1011700001E05FF4003016490860002084F8200088
:10118000A06A002823D02000A16A88471FE0082118
:10119000206C81400D421AD0300718D520680068B5
:1011A00030F00E00216808600121206C8140E06B66
:1011B00041600120A063012084F82100002084F810
:1011C0002000206B002802D02000216B884770BDD2
:1011D0000400024081000240080002401C0002405E
:1011E0003000024044000240580002406C000240BF
:1011F00080000240080402401C0402403004024007
:10120000440402400404024030B40125046CA540AB
:10121000C46B6560046863604468102C04D1046882
:10122000A2600468E16003E00468A1600468E26011
:1012300030BC704770477047704770472DE9F843DE
:10124000040000252078C0076BD5DFF8E8050168A9
:1012500011F00C01042907D0016811F00C010829D4
:101260000CD10068C00309D5DFF8C405006880030D
:1012700057D56068002854D10120BDE16068B0F501
:10128000803F06D1DFF8A805016851F48031016084
:1012900026E0606800280AD1DFF89405016831F47F
:1012A00080310160016831F48021016018E06068DC
:1012B000B0F5A02F0AD1DFF87805016851F480213C
:1012C0000160016851F48031016009E0DFF86005D8
:1012D000016831F480310160016831F480210160DE
:1012E000606800280ED000F0BFFE0500DFF8400562
:1012F0000068800315D400F0B7FE401B6528F5D3C5
:10130000032079E100F0B0FE0500DFF82405006855
:10131000800306D500F0A8FE401B6528F5D3032006
:101320006AE12078800750D5DFF80805016811F0E0
:101330000C0F07D0016811F00C01082914D10068C6
:10134000C00311D4DFF8E8040168890704D52169D6
:10135000012901D001204FE1016831F0F8016269F3
:1013600051EAC201016030E0206900281AD0012052
:10137000DFF8D014086000F077FE0500DFF8B00455
:101380000168890706D400F06FFE401B0328F5D3DF
:10139000032031E1016831F0F801626951EAC201CC
:1013A000016012E00020DFF89C14086000F05CFE91
:1013B0000500DFF87C040068800706D500F054FEC5
:1013C000401B0328F5D3032016E1207800072CD515
:1013D000A069002816D00120DFF86C14086000F026
:1013E00043FE0500DFF858040068800706D400F0CB
:1013F0003BFE401B0328F5D30320FDE0012000F055
:1014000004FA12E00020DFF84014086000F02CFE1F
:101410000500DFF82C040068800706D500F024FEE4
:10142000401B0328F5D30320E6E02078400740F175
:1014300088800026DFF814743868C0000AD4386841
:1014400050F080503860386810F08050009000985C
:1014500001200600DFF8F883D8F80000C00513D497
:10146000D8F8000050F48070C8F8000000F0FCFDCF
:101470000500D8F80000C00506D400F0F5FD401BBB
:101480006528F6D30320B7E0E068012806D1DFF82D
:10149000C403016851F00101016025E0E068002803
:1014A0000AD1DFF8B003016849084900016001680A
:1014B00031F00401016017E0E06805280AD1DFF887
:1014C0009403016851F004010160016851F00101C9
:1014D000016009E0DFF87C03016849084900016008
:1014E000016831F004010160E068002810D000F0CC
:1014F000BBFD0500DFF85C030068800719D400F02D
:10150000B3FD401B41F289318842F3D3032073E0DD
:1015100000F0AAFD0500DFF83C030068800708D54D
:1015200000F0A2FD401B41F289318842F3D3032031
:1015300062E03000C0B2012803D1386830F080503A
:101540003860E069002856D0DFF8E872386810F09B
:101550000C0008284DD0E069022837D1DFF8F89256
:101560000020C9F8000000F07FFD0600DFF8C0820F
:10157000D8F80000800106D500F076FD801B032816
:10158000F4D3032038E0206AB0F5803F05D13968F4
:1015900031F40031A06801433960396831F47411C5
:1015A000206A0143606A014339600120C9F80000E4
:1015B00000F05AFD0500D8F8000080011BD400F0AF
:1015C00053FD401B0328F6D3032015E00020DFF86D
:1015D0008812086000F048FD0500DFF8540200683A
:1015E000800108D500F040FD401B0328F5D30320FF
:1015F00002E0012000E00020BDE8F2832DE9F04187
:1016000004000D000026DFF85472386810F007005F
:10161000A8420BD23868C008C00028433860386838
:1016200010F00700A84201D001209BE0207880073D
:1016300007D5DFF800120A6832F0F002A068024312
:101640000A602078C00758D56068012806D1DFF805
:10165000E0010068800311D4012083E06068022863
:1016600006D1DFF8CC010068800107D4012079E0C1
:101670006F480068800701D4012073E0DFF8B4816F
:10168000D8F800108908890060680143C8F8001084
:1016900000F0EAFC0600606801280ED1D8F80000CE
:1016A00010F00C00042828D000F0DEFC801B41F272
:1016B00089318842F2D3032054E0606802280ED1B9
:1016C000D8F8000010F00C00082816D000F0CCFC70
:1016D000801B41F289318842F2D3032042E0D8F8DE
:1016E000000010F00C0F08D000F0BEFC801B41F28F
:1016F00089318842F3D3032034E0386810F00700C2
:1017000085420BD23868C008C0002843386038686A
:1017100010F00700A84201D0012023E02078400704
:1017200006D544490A6832F4E062E06802430A6080
:101730002078000707D53F48016831F460512269DD
:1017400051EAC201016000F00FF84549394A1268B8
:10175000C2F30312895CC84038490860002000F0D9
:1017600089FC0020BDE8F081F0B585B001A83D49B5
:10177000102200F0A5FC3C480088ADF800000020D5
:1017800000210022002300252A4E346814F00C07A3
:10179000042F02D0082F02D01BE027481AE001A82E
:1017A000C4F38347C05D0300E0030CD56846366888
:1017B000C6F34046805D01001F4800FB03F0B0FB0C
:1017C000F1F0020003E0294800FB03F002001000E2
:1017D00000E0194805B0F0BD18480068704780B5B2
:1017E000FFF7FAFF2249134A1268C2F30222895C0A
:1017F000C84002BD80B5FFF7EFFF1D490D4A1268D2
:10180000C2F3C222895CC84002BD81B00B4909689D
:10181000C9084FF47A72B1FBF2F101FB00F10091BB
:1018200000BF00994A1E00920029F9D101B070470B
:10183000001002400410024000127A000400002050
:101840002410024000004242800442421C10024028
:101850000070004020100240600042420020024020
:1018600084280008742800084621000800093D006B
:10187000BC28000810B410F00703504C22684FF643
:10188000FF010A404E4951EA03210A43226010BC7D
:1018900070474A480068C0F302207047012210F0E8
:1018A0001F018A40474903005BB25B0941F82320CE
:1018B000704710B4020052B2002A09D50A01424B07
:1018C000040064B214F00F04234403F8042C04E071
:1018D0000A013E4B040064B21A5510BC704770B444
:1018E000030013F00704D4F10700052801D30420F6
:1018F00001E0D4F10700251D072D01D2002500E0ED
:10190000E51E012616FA00F0401E0140A94016FA15
:1019100005F56D1E2A401143080070BC704710B5D4
:101920000400601EB0F1807F01D301200EE0601E34
:10193000274908600F215FF0FF30FFF7BAFF002052
:1019400024490860072024490860002010BD10B514
:1019500004002000FFF78EFF10BD2DE9F0410400C8
:101960000D0016000027FFF794FF80463200290083
:101970004046FFF7B4FF0100200040B2FFF799FF97
:10198000BDE8F08110B50400200040B2FFF786FFEB
:1019900010BD10B504002000FFF7C1FF10BD0428E2
:1019A00005D10D490A6852F004020A6004E00A49B0
:1019B0000A6832F004020A60704700000CED00E093
:1019C0000000FA0500E100E018ED00E000E400E0AE
:1019D00014E000E018E000E010E000E080B500F066
:1019E00075F901BD2DE9F84702000B00002500261E
:1019F000002100275FF000085FF0000EBEF1100F1D
:101A000080F00D81012010FA0EF0050018682840C2
:101A10000600AE4240F000815868002831D001280D
:101A200020D0022825D003283CD011281DD0122810
:101A300023D0DFF814C2604523D0DFF810C2604520
:101A40001FD0DFF80CC260451BD0DFF808C260452C
:101A500017D0DFF804C2604513D0DFF800C260453C
:101A60000FD022E0D86807001FE0D868001D0700EB
:101A70001BE0D8680830070017E0D8680C30070072
:101A800013E09868002802D10420070009E0986854
:101A9000012803D108200700156102E00820070093
:101AA000556102E000200700FFE7B6F5807F01D214
:101AB000140000E0141DB6F5807F02D25FEA8E08A4
:101AC00003E0BEF108085FEA88085FF00F09D4F868
:101AD00000C019FA08F03CEA000C17FA08F050EAC6
:101AE0000C0CC4F800C05868C00040F195805C48F8
:101AF000D0F800C05CF0010CC0F800C0006810F025
:101B0000010000900098DFF85CC1704680085CF826
:101B100020A01EF00300C0B2800019FA00F93AEAD2
:101B2000090A5148824202D15FF000091FE04F4884
:101B3000824202D15FF0010919E04D48824202D190
:101B40005FF0020913E04B48824202D15FF00309C3
:101B50000DE04948824202D15FF0040907E047489E
:101B6000824202D15FF0050901E05FF006091EF034
:101B70000300C0B2800019FA00F9514659EA010188
:101B8000704680084CF820105868C00307D53C48C0
:101B9000D0F800C056EA0C0CC0F800C006E0384887
:101BA000D0F800C03CEA060CC0F800C058688003BA
:101BB00007D53448D0F800C056EA0C0CC0F800C075
:101BC00006E03048D0F800C03CEA060CC0F800C07F
:101BD0005868C00207D52C48D0F800C056EA0C0C53
:101BE000C0F800C006E02848D0F800C03CEA060C67
:101BF000C0F800C05868800207D52448D0F800C05B
:101C000056EA0C0CC0F800C006E02048D0F800C02E
:101C10003CEA060CC0F800C01EF1010EEEE6BDE87D
:101C2000F1871300DBB2002B03D00B009BB20361E2
:101C300003E00B009BB21B0403617047C3680A00FA
:101C400092B25340C36070470000111000001210A0
:101C5000000021100000221000003110000032109E
:101C6000181002400800014000080140000C01402B
:101C7000001001400014014000180140001C014008
:101C80000004014004040140080401400C04014028
:101C900080B500F059FA00F04DF800F03AF900F084
:101CA00013F900F089F800F0ACF800F0D0F800F07B
:101CB000ECF801222021CE48FFF7B3FF00F0D2FA62
:101CC0000120CC49087000F09FFAFCE710B500F045
:101CD000CBF90400C748017801290BD16420B4FB7B
:101CE000F0F100FB1140002823D10221C048FFF78A
:101CF000A5FF1EE0017802290CD14FF47A70B4FBE5
:101D0000F0F100FB1140002813D10221B848FFF781
:101D100095FF0EE0007803280BD14FF47A70B4FBE6
:101D2000F0F100FB1140002803D10221B048FFF779
:101D300085FF10BD00B58FB0012005905FF48030A5
:101D40000690002107910121099102210C910D902B
:101D50005FF4E0100E9005A8FFF770FA002803D09A
:101D60009721A54800F062F90F2000900220019011
:101D7000002002904FF48060039000200490022124
:101D80006846FFF73BFC002803D0A5219A4800F0E5
:101D90004DF9FFF721FD4FF47A71B0FBF1F0FFF739
:101DA000F8FD0420FFF7FBFD002200215FF0FF306B
:101DB000FFF7D3FD0FB000BD1CB5904C90482060DC
:101DC000472060600020A06040F2E730E060002023
:101DD000A061200000F0BEFA002803D0C12186488F
:101DE00000F024F9002000900020019069462000B6
:101DF00000F004FC002803D0C8217F4800F016F949
:101E000013BD1CB57F4C8048206040F267106060B5
:101E10000020A06040F2E730E0600020A0612000D8
:101E200000F098FA002803D0DA21734800F0FEF899
:101E300000200090002001906946200000F0DEFBA9
:101E4000002803D0E1216C4800F0F0F813BD80B504
:101E50006E486F4901604FF4165141604FF4805154
:101E600081600021C1604FF4806101610C214161FA
:101E7000002181610021C161FEF75AF9002803D0D9
:101E8000F4215D4800F0D2F801BD80B56148624997
:101E900001604FF4966141604FF4805181600021F0
:101EA000C1604FF4806101610C21416100218161B9
:101EB0000021C161FEF73CF9002804D040F207116F
:101EC0004D4800F0B3F801BD80B55448016851F0A9
:101ED00001010160016811F00101009100990168A0
:101EE00051F002010160006810F0020000900098BB
:101EF000022202210F20FFF730FD0F20FFF742FDE5
:101F0000012202213A20FFF728FD3A20FFF73AFD8F
:101F100001BD78B585B04248016851F00801016003
:101F2000016811F0080104910499016851F0100151
:101F30000160016811F0100104910499016851F0E9
:101F400020010160016811F02001049104990168E9
:101F500051F040010160006810F0400004900498C6
:101F6000304C002280212000FFF75BFE204D002234
:101F700020212800FFF755FE002202212800FFF74C
:101F800050FE294E002220213000FFF74AFE4FF478
:101F900070400090002001900020029069462800C7
:101FA000FFF720FD8020009001200190002002908A
:101FB0000220039069462000FFF714FD22200090C4
:101FC0000120019000200290022003906946280021
:101FD000FFF708FD202000900120019000200290D2
:101FE0000220039069463000FFF7FCFC06B070BD8C
:101FF000000C0140F40300200C280008EC02002033
:10200000001000402C030020001400406C0300204E
:10201000004C0040AC030020003801401410024086
:10202000181002400014014000180140FEE730B4CF
:10203000002513E050F8042BD30744BFA9F1010396
:102040009A18091F042942F8045BFAD213468C0738
:1020500044BF15809B1CC90748BF1D7050F8041B66
:102060000029E7D130BC704701480068704700BFC5
:10207000EC03002010B504004FF47A700D49097884
:10208000B0FBF1F00C490968B1FBF0F0FFF781FCFF
:10209000002801D001200CE0102C09D200222100E0
:1020A0005FF0FF30FFF759FC04480460002000E0B7
:1020B000012010BD080000200400002000000020C6
:1020C000103A07D330B4B1E83810103AA0E838100D
:1020D000F9D230BC530724BFB1E80810A0E80810BB
:1020E00044BF51F8043B40F8043BD20724BF31F809
:1020F000022B20F8022B44BF0B7803707047121F8D
:1021000017D35B0009D151F8043B20F8023B1B0CAC
:10211000121F20F8023BF6D20BE051F8043B00F806
:10212000013B1B0A20F8023B1B0C121F00F8013B6D
:10213000F3D238BF121D521E24BF11F8013B00F824
:10214000013BF8D87047010280B50748016851F09B
:10215000100101600320FFF7FAFB0020FFF78AFF60
:10216000FEF79EFB002002BD002002401CB50400CB
:10217000684884421BD120680068C00617D500203B
:1021800000902068006800902068406800900098E7
:102190002000FEF79CF860486049096849680180A2
:1021A0000188D1F59671018001205D49087013BD49
:1021B00080B55C4800210268516201680968C9075E
:1021C00001D400F0E3F801BD10B5564C200000F03A
:1021D000ECF80020216848625348FEF7B1F801206E
:1021E0005249087010BD38B504004E4884420AD1E7
:1021F0004F4D2878401C28702878062803DBFFF70D
:10220000E3FF0020287031BD38B5484C2078012804
:102210000ED1484D48480188C9B2280000F03CF86A
:10222000002020704FF4967229003F48FDF7BBFF55
:102230003B4C2078012814D1404D37480188C9B261
:10224000280000F04EF80020207032480168C9686C
:1022500051F010010268D1604FF496722900FDF729
:10226000DBFF31BD80B52B480168C96851F0100112
:102270000268D1604FF496723049FDF7CDFF2A48CD
:102280000168C96851F010010268D1604FF496727C
:102290002849FDF7C1FF01BDF8B504000D00284E27
:1022A000002220213000FFF7BCFC00273800290065
:1022B000C0B2C9B288420AD2224800684006FBD5A3
:1022C0003800C0B2205C204908607F1CEEE71D4842
:1022D00000684006FBD5012220213000FFF7A1FC59
:1022E000F1BD10B4002213000C00DBB2E4B2A34233
:1022F0000AD2164B1B685B06FBD51300DBB2C35C2E
:10230000134C2360521CEEE7104B1B685B06FBD599
:1023100010BC7047AC030020F2030020A80200208C
:10232000F6030020EC0200206C030020F5030020DF
:10233000F70300200C000020F003002038010020EB
:10234000000C01400038014004380140004C0040BE
:10235000044C004010B50400002C01D1012014E011
:1023600094F83D00002805D1002084F83C002000AE
:10237000FEF7E1FA022084F83D00211D206800F0FC
:10238000EAF8012084F83D00002010BD0100086833
:10239000C06850F001000A68D0600868006850F01A
:1023A00001000A6810600020704701000868C068DA
:1023B000400840000A68D0600868006A41F21112C3
:1023C00010420BD10868006A40F24442104205D125
:1023D00008680068400840000A68106000207047E4
:1023E00010B504002068006980071AD52068C0680D
:1023F000800716D57FF00200216808610120207750
:102400002068806910F0030F03D0200000F024F949
:1024100005E0200000F021F9200000F01FF9002065
:1024200020772068006940071AD52068C0684007F7
:1024300016D57FF00400216808610220207720680B
:10244000806910F4407F03D0200000F005F905E01A
:10245000200000F002F9200000F000F900202077B1
:102460002068006900071AD52068C068000716D5E3
:102470007FF0080021680861042020772068C06987
:1024800010F0030F03D0200000F0E6F805E0200074
:1024900000F0E3F8200000F0E1F800202077206849
:1024A0000069C0061AD52068C068C00616D57FF03E
:1024B000100021680861082020772068C06910F4A6
:1024C000407F03D0200000F0C7F805E0200000F0B6
:1024D000C4F8200000F0C2F80020207720680069CE
:1024E000C0070AD52068C068C00706D57FF0010084
:1024F000216808612000FFF776FE20680069000669
:102500000AD52068C068000606D57FF080002168E3
:102510000861200000F0A3F82068006940060AD591
:102520002068C068400606D57FF040002168086139
:10253000200000F095F82068006980060AD5206820
:10254000C068800606D57FF0200021680861200061
:1025500000F087F810BD10B400220468DFF888305E
:10256000984212D0DFF8842090420ED0B0F1804F14
:102570000BD0DFF87C20904207D0DFF87820904223
:1025800003D0DFF87420904203D134F070044A681D
:10259000144398420FD0DFF8542090420BD0B0F192
:1025A000804F08D0124A904205D0124A904202D081
:1025B000114A904203D134F44074CA68144334F091
:1025C00080044A69144304608A68C2620A688262AD
:1025D000984202D0054A904201D10A690263012261
:1025E000426110BC70470000002C014000340140E3
:1025F0000004004000080040000C0040020092F877
:102600003C00012801D1022024E0012082F83C0096
:10261000022082F83D001068406830F070001368B6
:102620005860106843680868034310684360106886
:10263000806830F08000136898601068836848688C
:10264000034310688360012082F83D00002082F877
:102650003C0000207047000070477047704770478B
:10266000704770477047FEE7FEE7FEE7FEE77047FA
:102670007047704780B500F03DF8FFF7AFF901BD36
:10268000704780B51448FEF7F7FB01BD10B5134C39
:102690002000FDF77DFE2000FFF768FD10BD10B59E
:1026A0000F4C2000FDF774FEA18DE08D091A0D4836
:1026B0000180FFF77DFD10BD80B50B48FFF790FE50
:1026C00001BD80B50948FFF78BFE01BD80B5084804
:1026D000FEF7D2FB01BD0000A8020020AC030020E1
:1026E0006C030020F0030020EC0200202C030020EB
:1026F0006402002003490A680348007882180A60CF
:10270000704700BFEC030020080000200F49086854
:1027100050F0010008600E4A13680E480340136031
:102720000B680D4803400B60086830F48020086097
:10273000106830F4FE0010605FF41F000749086065
:102740005FF000600649086070470000001002401A
:10275000041002400000FFF8FFFFF6FE08100240E0
:1027600008ED00E0463A5C62756164726174655C14
:10277000425F4D6464756C655C5372635C73746D29
:102780003332663178785F68616C5F6D73702E6389
:102790000000000030B450F8041B79B102684368AF
:1027A00002440830DC0744BFA9F10104E31852F8E1
:1027B000045B43F8045B091FF9D1ECE730BC7047B8
:1027C00010B5074979441831064C7C44163404E0AE
:1027D0000A68081D114488470146A142F8D110BD7E
:1027E000080000002800000047F8FFFFEC0300008D
:1027F0000C000020000000009DFFFFFF0C00000007
:10280000B00000000000002000000000463A5C62BA
:10281000756164726174655C415F4D6F64756C6570
:102820005C5372635C6D61696E2E630000F00DF89D
:10283000002801D0FFF7C4FFAFF300800020AFF302
:102840000080FFF725FA00F002F80120704700F041
:1028500001B800000746384600F002F8FBE7000028
:1028600080B5AFF30080024A11001820ABBEFBE731
:102870002600020002030405060708090A0B0C0DD6
:102880000E0F101000000000000000000102030401
:102890000607080901488047014800470D2700083E
:1028A000A5280008AFF30080AFF30080FFF7BEFF5C
:1028B0001000000000A24A04010000000000000017
:1028C00001020304FFF7FEBFFFF7FEBFFFF7FEBFE5
:1028D000FFF7FEBFFFF7FEBFFFF7FEBFFFF7FEBF2C
:1028E000FFF7FEBFFFF7FEBFFFF7FEBFFFF7FEBF1C
:1028F000FFF7FEBFFFF7FEBFFFF7FEBFFFF7FEBF0C
:10290000FFF7FEBFFFF7FEBFFFF7FEBFFFF7FEBFFB
:10291000FFF7FEBFFFF7FEBFFFF7FEBFFFF7FEBFEB
:10292000FFF7FEBFFFF7FEBFFFF7FEBFFFF7FEBFDB
:10293000FFF7FEBFFFF7FEBFFFF7FEBFFFF7FEBFCB
:10294000FFF7FEBFFFF7FEBFFFF7FEBFFFF7FEBFBB
:10295000FFF7FEBFFFF7FEBFFFF7FEBFFFF7FEBFAB
:10296000FFF7FEBFFFF7FEBFFFF7FEBFFFF7FEBF9B
:10297000FFF7FEBFFFF7FEBFFFF7FEBFFFF7FEBF8B
:10298000FFF7FEBFFFF7FEBFFFF7FEBFFFF7FEBF7B
:08299000FFF7FEBFFFF7FEBFD9
:04000005080028A522
:00000001FF
